:020000040800F2
:10000000102700200101000831150008A10E00088A
:10001000CB140008710B0008B72400080000000092
:100020000000000000000000000000001D1E00088D
:10003000750B000800000000CD170008E11F000844
:100040001B0100081B0100081B010008711B0008B0
:100050001B0100081B0100081B0100081B01000810
:100060001B0100081B0100081B0100081B01000800
:100070001B0100081B0100081B0100081B010008F0
:100080001B0100081B0100081B0100081B010008E0
:100090001B0100081B0100081B0100081B010008D0
:1000A0001B0100081B0100081B0100081B010008C0
:1000B000452000081B0100081B0100081B01000867
:1000C0001B0100081B0100081B0100081B010008A0
:1000D0001B010008892200081B0100081B01000801
:1000E0001B0100081B0100081B010008DFF80CD0F1
:1000F00000F008FD00480047814800081027002054
:100100000648804706480047FEE7FEE7FEE7FEE7B1
:10011000FEE7FEE7FEE7FEE7FEE7FEE7E51F000875
:10012000ED0000082DE9F0410024061B254671F181
:10013000000605DA01240027D0EB070067EB010178
:10014000161E73F1000605DA0027D2EB070201251F
:1001500067EB030300F098FB86460E4617469C4665
:10016000AC4204D00025D0EB050E65EB010624B1AE
:100170000020D2EB000760EB030C704631463A4694
:100180006346BDE8F081D2B201E000F8012B491EC0
:10019000FBD270470022F6E710B513460A46044624
:1001A0001946FFF7F0FF204610BD10B5002200E011
:1001B000521C835C8C5CA34201D1002BF8D1D8B2D5
:1001C000E1B2401A10BD30B504460020034600E0FD
:1001D0005B1C934203D2E05CCD5C401BF8D030BD89
:1001E000F0B480EA0102D40F4200B2EB410F02D218
:1001F0000246084611464A0042D0C30DDDB2C1F3A3
:10020000C752AD1A202D35DAC1F3160141F40002B0
:1002100004B15242C5F1200602FA06F12A41104407
:10022000B3EBD05F23D0C4B1012DA0EBC35009DCE8
:10023000F0BC4FF0004202EAC352DBB200F500000E
:1002400000F08DBB400000F1807000EBC350A0F1C6
:10025000807040EAD170490009E0490841EAC07164
:10026000A0EBC35000F50000400800EBC350F0BC09
:1002700000F06CBB6142012202EB4101001BF6E77A
:10028000F0BC704781F00041AAE780F00040A7E78A
:1002900080EA010210B502F00043400022D04A007B
:1002A0001FD0010E01EB1261C0F35600C2F35602DB
:1002B00040F4000042F40002A0FB022000047F3959
:1002C000140400D0401C50EA124001D44000491EE2
:1002D000C2B20C0604EBD010401C4008802A02D0A9
:1002E00003E0002010BD20F00100002900DA00200A
:1002F000184310BD30B480EA010202F0004530F02E
:10030000004221F0004013D090B1C30DD40DC2F3D0
:100310001601C0F31600E41A41F4000140F4000293
:100320007D34914201D3641C00E04900002C02DAC4
:1003300030BC002070474FF400000023914201D3ED
:10034000891A034340084FEA4101F7D151B1914264
:1003500002D14FF0004105E002D24FF0010101E06F
:100360006FF0010103EBC450284430BC00F0EEBA3A
:100370002DE9FE4F804681EA0300C00F0C46009035
:1003800021F0004123F00045B8EB0200A94105D25D
:100390004046214690461C460B46024623F000404C
:1003A000104347D0270DC7F30A00C3F30A51029048
:1003B000401A019040286BDAC3F3130040F4801B0D
:1003C0000098924620B10023D2EB030A63EB0B0B9B
:1003D00001985946C0F14002504600F086FA0646A0
:1003E0000D4650465946019A00F09EFA10EB08005F
:1003F0006141002487EA115284EAE7731A4340D02E
:10040000009A62B3019A012A4FEA075215DC001BD9
:1004100061EB02014FF0004202EA0752CDE90042CF
:10042000001C41F5801132462B4600F004FB03B05E
:10043000BDE8F08F40462146F9E7001B61EB020161
:10044000001C41F5801300185B412018A2F500172D
:1004500047EB030140EAD570B6196D4111E06D0814
:100460004FEA360645EAC0754FEA0752001B61EBBA
:100470000201001C41F5801149084FEA30000019C3
:10048000514132462B4603B0BDE8F04F00F0C4BAEC
:100490000098012240000023D0EB020263EBE073DE
:1004A000009821464FEAE074B8EB000061EB0401CC
:1004B000E9E783F000435BE781F0004158E72DE96D
:1004C000FE4F81EA030404F0004421F0004100944F
:1004D0004FF0000B23F0004350EA01045ED052EAD3
:1004E00003045BD0C3F30A54C1F30A552C44A4F2AD
:1004F000F3340194A0FB0254C1F3130141F48011C1
:10050000C3F3130343F4801301FB024400FB034EC7
:10051000840A970A44EA815447EA8357A4FB076890
:1005200002958D0A05FB07854FEA932C04FB0C54BA
:100530002705029D4FEA065847EA1637B5EB08052E
:100540006EEB070C870E920E47EA811742EA831280
:10055000A7FB0201B6EB0B0164EB00042B0D43EA91
:100560000C335E1844EB1C50DA465146E7FB02019F
:10057000C5F313044FEA0B3343EA14534FEA043232
:10058000019C43EA0603A4F10C040294009CCDE90B
:1005900000B400F050FA03B0BDE8F08F002001462F
:1005A000F9E72DE9F04D81EA030404F0004B21F056
:1005B000004514464FF0000A23F0004150EA0502BE
:1005C00020D054EA01021DD0C5F30A570246C5F3F4
:1005D0001303C1F31300C1F30A5640F4801543F42A
:1005E0008013A7EB0608101BD64608F2FD3873EB04
:1005F000050002D308F1010801E092185B41B8F14F
:10060000000F03DA00200146BDE8F08D00204FF412
:100610008011064684460EE0171B73EB050705D3D1
:10062000121B63EB050306434CEA010C49084FEA31
:10063000300092185B4150EA0107EDD152EA030005
:1006400012D082EA040083EA0501084305D0101B9A
:10065000AB4106D20122002306E000224FF0004306
:1006600002E06FF0010253101AEB06004CEB085148
:1006700010EB0A0041EB0B01BDE8F04D00F0CCB9E6
:10068000C10F80EAE0700844CA079623002100F0F9
:1006900066B996230022114600F061B90EB5C10F6C
:1006A00080EAE0700844CA07002140F233438DE835
:1006B0000E000A460B4600F0BEF903B000BD00F084
:1006C000004220F00040C10DC0F3160040F40000CD
:1006D0007F2901DA00207047962903DCC1F19601D9
:1006E000C84001E096398840002AF4D04042704763
:1006F00020F00040C10DC0F3160040F400007F2937
:1007000001DA00207047962903DCC1F19601C84048
:10071000704796398840704770B5C1F30A5201F0AE
:1007200000450024C1F3130140F2FF3341F480116E
:100730009A4201DA002070BD40F233439A42A2F29D
:10074000334203DC524200F0DFF800E090402C43DB
:10075000F1D0404270BDC1F30A5210B5C1F313018C
:1007600040F2FF3341F480119A4201DA002010BDBB
:1007700040F233439A42A2F2334203DC524200F089
:10078000C3F810BD904010BD00F0004230F00040B2
:100790000AD0C10D01F56071C0F3160042EA0151A3
:1007A000C20840071143704700200146704700000F
:1007B00030B5041E71F1000404DB4FF000444042E8
:1007C00064EB0101141E73F1000405DB1C464FF0BD
:1007D0000043524263EB04038B4208BF824230BDA8
:1007E00030B5041E71F1000404DB4FF000444042B8
:1007F00064EB0101141E73F1000405DB1C464FF08D
:100800000043524263EB0403994208BF904230BD5B
:1008100001F0004330B421F0004150EA010206D05B
:100820000A0DA2F56072C1F31301002A02DC30BC8C
:1008300000207047440F44EAC104C100E01830BCF6
:1008400000EBC25000F082B8002801DBC0F100408C
:10085000002901DBC1F100418142704730B50B46F0
:10086000014600202022012409E021FA02F59D42E0
:1008700005D303FA02F5491B04FA02F52844151EB4
:10088000A2F10102F1DC30BD2DE9F05F0546002048
:1008900092469B4688460646814640241BE02846F1
:1008A00041464746224600F02FF853465A46C01AA2
:1008B000914110D311461846224600F016F82D1A21
:1008C00067EB01084F4622460120002100F00DF899
:1008D00017EB00094E41201EA4F10104DFDC48465D
:1008E00031462A464346BDE8F09F202A04DB203AE1
:1008F00000FA02F1002070479140C2F1200320FA73
:1009000003F3194390407047202A04DB203A21FA70
:1009100002F00021704721FA02F3D040C2F1200218
:100920009140084319467047202A06DBCB17203A2E
:1009300041FA02F043EAE07306E041FA02F3D040E4
:10094000C2F1200291400843194670470029A8BF10
:100950007047401C490008BF20F00100704710B4E8
:10096000B0FA80FC00FA0CF050EA010404BF10BC9D
:10097000704749B1CCF1200421FA04F411FA0CF1CA
:1009800018BF012121430843A3EB0C01CB1D4FEA03
:1009900000614FEA102042BF002010BC704700EBFE
:1009A000C35010440029A4BF10BC7047401C49002C
:1009B00008BF20F0010010BC7047F0B4002802DC32
:1009C000F0BC00207047C0F3C751C0F3160040F4DC
:1009D0000000CA0701D14000491E3F2202EB610519
:1009E000002211464FF4000626FA01F31344D418EE
:1009F000844201D8001B1A464000491C1729F3DD28
:100A00005100814202D24FF0FF3100E0002102EBA1
:100A1000C550F0BCFFF79ABF10B5141E73F1000467
:100A200008DA401C41F1000192185B411A4301D1E0
:100A300020F0010010BD2DE9F04D92469B4611B10A
:100A4000B1FA81F202E0B0FA80F220329046FFF76C
:100A50004CFF04460F4640EA0A0041EA0B015346A8
:100A60005A46084313D0114653EA010019D0C8F181
:100A700040025046FFF748FF05460E46504659468D
:100A80004246FFF732FF084305D0012004E020462C
:100A90003946BDE8F08D0020054346EAE0762C4358
:100AA00037430A986305E40AA0EB08000022FD0A18
:100AB00044EA47540A3002D500200146E9E701051F
:100AC00010196941DDE9084500196941BDE8F04D9B
:100AD000A2E7C1F30A52C1F3130140F2FF3341F41C
:100AE00080119A4202DA00200146704740F23343F7
:100AF0009A42A2F2334202DC5242FFF705BFFFF7EF
:100B0000F4BE0000064C074D06E0E06840F001032B
:100B100094E8070098471034AC42F6D3FFF7EAFA9E
:100B200080740008A074000810B5012000F070FE69
:100B3000002000F06DFE10BD08B5014600200090B9
:100B4000034800900098084400900098008808BD71
:100B5000006C004008B500220092044A0092009AFE
:100B600002440092009A116008BD0000006C004031
:100B700000BFFEE7704701B509E0002000E0401C1F
:100B80004CF250318842FAD30099491E00910099E5
:100B90000029F2D108BD0FB47CB504460A99089823
:100BA000FFF776FB054609990798FFF771FB0646A4
:100BB0002946FFF767FB0090DDE90801FFF768FBB6
:100BC00005460A990798FFF763FB06462946FFF793
:100BD00007FB0190DDE90001C4E900017CBC5DF880
:100BE00014FB00002DE9F04F91B0044600264FF4AD
:100BF00080700E9040F2FF100D9000251CE0B54271
:100C00000FDA04EBC60103C9CDE9060104EBC60007
:100C100004EBC50206CA06C004EBC500DDE90612F6
:100C200006C00E9F04E0F61B384607EBD0714F104C
:100C3000B742F8DD3E446D1C0D988542DFDB4FF472
:100C400000700F9001200C9002E00C98401C0C905A
:100C50000F9800EBD07149100F910129F5D188460A
:100C60007BE0A8F10100022101FA00F9484609EBF6
:100C7000D0714FEA610A4FF07E500A9000200B902D
:100C80005046FFF70BFD02460B46CDE90001364802
:100C90003649FFF786FCCDE9020101F00FFCCDE9F2
:100CA0000401FFF7B5FD08905046FFF7F7FC024638
:100CB0000B46CDE900012C482C49FFF772FCCDE929
:100CC000020101F00FFC81F00041CDE90401FFF7C2
:100CD0009FFD099000263AE035462CE005EB0A0B13
:100CE0000B9804EBCB0C00900A9B06A8DCE90012E1
:100CF000FFF751FF54F835000699FFF7C3FA44F89F
:100D00003B0004EBC50207995068FFF7BBFA04EB00
:100D1000CB01486054F835000699FFF761FA44F8B2
:100D2000350004EBC50207995068FFF759FA04EB48
:100D3000C50148604D44B5F5007FCFDB09980090B0
:100D40000AA8089BDDE90A12FFF725FF761CAAF125
:100D50000100B042C0DA08F101080C98804580DD3E
:100D600011B0BDE8F08F0000182D4454FB2109405C
:100D70002DE9F04102460025002600200023002432
:100D8000002791F803C00CF00F0591F803C00CF098
:100D9000100CBCF1000F03D091F802C04CEA05051D
:100DA00091F800C0BCF1000F31D0146800202BE096
:100DB0004FF0010C0CFA00F3B1F800C00CEA030686
:100DC0009E4220D183004FF00F0C0CFA03F7BC4376
:100DD00005FA03FC4CEA040491F803C0BCF1280FA7
:100DE00006D14FF0010C0CFA00FCC2F814C00AE066
:100DF00091F803C0BCF1480F05D14FF0010C0CFA7B
:100E000000FCC2F810C0401C0828D1D31460B1F80F
:100E100000C0BCF1FF0F34DD546800202EE000F16B
:100E2000080C4FF0010808FA0CF3B1F800C00CEA06
:100E300003069E4221D183004FF00F0C0CFA03F7FA
:100E4000BC4305FA03FC4CEA040491F803C0BCF16E
:100E5000280F05D100F1080C08FA0CF8C2F814802C
:100E600091F803C0BCF1480F07D100F1080C4FF016
:100E7000010808FA0CF8C2F81080401C0828CED3EC
:100E80005460BDE8F0810246002093680B400BB12E
:100E9000012000E000207047416170470161704708
:100EA00000BFFEE710B5044694B180211448FFF757
:100EB000F5FF00F040F940211148FFF7EFFF00F087
:100EC0003AF940210E48FFF7E7FF00F034F915E04A
:100ED00080210B48FFF7E0FF00F02DF94021084882
:100EE000FFF7DCFF00F027F940210548FFF7D4FFAA
:100EF00000F021F980210248FFF7D0FF10BD00006B
:100F0000000C014010B54FF480600C49086000F0FF
:100F100007F94FF400600949086000F001F94FF447
:100F200080600649091F086000F0FAF84FF48060FD
:100F30000249086000F0F4F810BD0000140C0140F4
:100F400010B54FF480600C49086000F0E9F84FF4E8
:100F500000600949091F086000F0E2F84FF4806062
:100F60000549091F086000F0DBF84FF48060024972
:100F7000086000F0D5F810BD140C014070B50825CC
:100F8000002428021249086016E06006040E4FF49F
:100F900080600F49091D086000F0C2F84FF48060BE
:100FA0000B49086000F0BCF809480838006800F4F4
:100FB000006008B144F00104281EA5F10101CDB282
:100FC000E3D14FF480600249091D0860204670BDDE
:100FD000100C014070B5044608251DE04FF48060F8
:100FE0001249086000F09CF804F0800028B14FF42A
:100FF00000600E49091F086003E04FF400600B49D0
:1010000008606006040E00F08BF84FF4806007491A
:10101000091F086000F084F8281EA5F10101CDB277
:10102000DCD14FF480600149086070BD140C0140B0
:1010300010B54FF40060154908604010086000F0DA
:101040006FF812480838006808B9012000E0002055
:1010500000F4006008B1002010BD4FF400600B499F
:10106000091D086000F05CF808480838006800F4C2
:10107000006008B10020EFE74FF400600349091D4C
:10108000086000F04DF80120E6E70000100C014078
:1010900010B54FF480600C49086000F041F84FF43F
:1010A00000600949086000F03BF84FF48060064991
:1010B000091F086000F034F84FF400600249091F6E
:1010C000086000F02DF810BD140C014010B54FF46D
:1010D00080601249086000F023F84FF400600F4967
:1010E000091F086000F01CF84FF480600B49091FCD
:1010F000086000F015F809480C38006800F400603A
:1011000028B14FF4806005490860002010BD4FF4FD
:101110008060024908600120F8E70000140C0140DB
:1011200008B50720009002E00098401E009000984B
:101130000028F9D108BD062000BF011EA0F1010260
:10114000D0B2FAD17047000008B50121082000F0A4
:101150004FFB14208DF803004020ADF80000032061
:101160008DF8020069460548FFF702FE8020ADF8C1
:10117000000069460148FFF7FBFD08BD000C014077
:101180002DE9F0410446884616461F4600F0D4F883
:10119000E0B200F089F81A480078012802D1002056
:1011A000BDE8F08108F0FF0000F07EF814480078F8
:1011B000012801D10020F3E700F0BEF8611CC8B29D
:1011C00000F072F80E480078012801D10020E7E70E
:1011D00000250FE000F046F806F8010B781EA84243
:1011E00003D10120FFF75EFE02E00020FFF75AFE68
:1011F000681C85B2BD42EDDB00F0B8F80120CFE7F6
:101200001400002070B504460D4600F095F8E0B2D9
:1012100000F04AF812480078012801D1002070BD82
:10122000284600F041F80E480078012801D100203E
:10123000F5E700F081F8611CC8B200F035F8084805
:101240000078012801D10020E9E700F00BF80646FC
:101250000120FFF727FE00F089F83046DFE70000A5
:101260001400002070B50024002516E06006040E6E
:1012700040210C48FFF712FEFFF75DFF802109486F
:10128000FFF701FE08B1601CC4B240210548FFF71A
:1012900003FEFFF750FF681CC5B2082DE6DB2046B1
:1012A00070BD0000000C014070B5044600251DE033
:1012B00004F0800020B180211D48FFF7EFFD03E01E
:1012C00080211B48FFF7E8FDFFF735FF4021184854
:1012D000FFF7E4FDFFF72FFF40211548FFF7DCFD86
:1012E000FFF729FF6006040E681CC5B2082DDFDB7E
:1012F00080210F48FFF7D2FDFFF71DFF40210C486A
:10130000FFF7CCFDFFF717FF80210948FFF7BBFD72
:1013100018B101200749087002E000200549087053
:1013200040210348FFF7B8FDFFF705FF70BD00003F
:10133000000C01401400002010B540210A48FFF7BE
:10134000ADFD80210848FFF7A9FDFFF7F4FE8021DD
:101350000548FFF7A1FDFFF7EEFE40210248FFF729
:101360009BFDFFF7E8FE10BD000C014010B5802189
:101370000748FFF791FD40210548FFF78FFDFFF774
:10138000DAFE80210248FFF789FDFFF7D4FE10BD89
:10139000000C014070B504460D461646FFF7CCFF21
:1013A000E0B2FFF781FF0E480078012801D100204C
:1013B00070BD2846FFF778FF09480078012801D161
:1013C0000020F5E73046FFF76FFF05480078012859
:1013D00001D10020ECE7FFF7C9FF0120E8E700009A
:1013E000140000200146CA1701EB92729210A1EB83
:1013F000820292B9642091FBF0F200FB121050B906
:101400004FF4C87091FBF0F200FB121008B90120F4
:1014100070470020FCE70120FAE70020F8E710B54C
:10142000C0220221AE20FFF7B5FF00220321AE202B
:10143000FFF7B0FF00220421AE20FFF7ABFF002230
:101440000521AE20FFF7A6FF00220621AE20FFF700
:10145000A1FF0F220821AE20FFF79CFF03220921E4
:10146000AE20FFF797FF27220A21AE20FFF792FF59
:1014700032220C21AE20FFF78DFF32220D21AE204B
:10148000FFF788FF7F221021AE20FFF783FF10BDFA
:1014900008B50121082000F0ABF904208DF8030005
:1014A000C001ADF8000069460148FFF761FC08BDC6
:1014B000000C014010B540220921AE20FFF76AFF61
:1014C00008B1012010BD0020FCE700BFFEE70000CE
:1014D00070B5044603F094FBC5B2022237216820A0
:1014E00003F016F90A20FFF746FBF5B9782004F05F
:1014F000F3F8782003F072FA642004F093F802F015
:10150000E9F90A4803F080F9064602F057FB40F279
:10151000731002F065F8642002F080FA012C01D10A
:1015200004F040FA012003F079FF70BDBC000020F8
:101530007047000070B5002100230F22C47804B367
:10154000154C246804F4E064C4F5E064210AC1F198
:101550000403CA40447804FA03F184781440214318
:1015600009010E4C0678A155047804F01F050124EA
:10157000AC4005786D11AD0005F1E025C5F80041DE
:1015800009E0047804F01F050124AC40044D0678FE
:10159000761145F8264070BD0CED00E000E400E057
:1015A00080E100E002490143024A116070470000F7
:1015B0000000FA050CED00E010B5AE220021782005
:1015C000FFF7E8FE202200217820FFF7E3FE00224B
:1015D00011467820FFF7DEFEB02200217820FFF7C9
:1015E000D9FEC82200217820FFF7D4FE0022114640
:1015F0007820FFF7CFFE102200217820FFF7CAFEE7
:10160000402200217820FFF7C5FE812200217820AA
:10161000FFF7C0FEDF2200217820FFF7BBFEA122EA
:1016200000217820FFF7B6FEA62200217820FFF7E0
:10163000B1FEA82200217820FFF7ACFE3F22002156
:101640007820FFF7A7FEA42200217820FFF7A2FE52
:10165000D32200217820FFF79DFE0022114678203A
:10166000FFF798FED52200217820FFF793FEF022A5
:1016700000217820FFF78EFED92200217820FFF785
:1016800089FE222200217820FFF784FEDA22002141
:101690007820FFF77FFE122200217820FFF77AFEE4
:1016A000DB2200217820FFF775FE20220021782020
:1016B000FFF770FE8D2200217820FFF76BFE1422C9
:1016C00000217820FFF766FEAF2200217820FFF787
:1016D00061FE10BD0FB42DE9F0439BB0044688466F
:1016E000002625A8019002A8019A249901F012F879
:1016F000002001900DF1080955E027463CE007F174
:10170000B000C2B200217820FFF744FE08F00F02BB
:1017100000217820FFF73EFE102000EB2812002168
:101720007820FFF737FEA74210D100250CE099F88A
:1017300000002038214901EB0010425D4021782053
:10174000FFF728FE681CC5B2082DF0DB601C87423D
:1017500010D108250CE099F800002038174901EB5A
:101760000010425D40217820FFF714FE681CC5B2CE
:10177000102DF0DB781CC7B2A01C8742BFDB701CA9
:10178000C6B208F1080000F0FF08F11706EB11716E
:101790000911A6EB011109B9A01CC4B2402E00D159
:1017A00005E009F1010999F800000028A5D100BF62
:1017B0001BB0BDE8F0035DF814FB0000445D0008B9
:1017C000014908627047000000000E4270470000A7
:1017D00029B1064AD2690243044BDA6104E0034AA4
:1017E000D2698243014BDA61704700000010024069
:1017F00029B1064A92690243044B9A6104E0034A04
:1018000092698243014B9A617047000000100240C8
:1018100001490860704700004004424230B5002191
:101820000022002400232D4D6D6805F00C0121B12C
:10183000042905D0082923D105E0294D056022E0BF
:10184000274D05601FE0254D6D6805F47012234D8E
:101850006D6805F48034022505EB92421CB9214DD8
:10186000554305600BE01D4D6D6805F400351DB155
:101870001C4D5543056002E0194D5543056002E0DB
:10188000174D056000BF00BF144D6D6805F0F001F5
:101890000909154D6B5C0568DD4045600F4D6D68AD
:1018A00005F4E061090A104D6B5C4568DD40856018
:1018B0000A4D6D6805F46051C90A0B4D6B5C4568B3
:1018C000DD40C560054D6D6805F44041890B074D4D
:1018D0006B5CC568B5FBF3F5056130BD00100240D7
:1018E00000127A0000093D000000002010000020D6
:1018F00010B501460022002300204A11012A02D11E
:10190000094C236806E0022A02D1074C236A01E051
:10191000054C636A01F01F02012494401C400CB185
:10192000012000E0002010BD0010024000210B4A01
:1019300011700A4A203A82F82010012802D00428A7
:1019400008D103E00121054A117004E00521034A92
:10195000117000E000BF00BF70470000201002407F
:1019600001490860704700003C0442420249096A8C
:101970000143014A11627047001002400249098880
:101980008143014A118070470428004003480088C1
:1019900040F0100001490880704700000428004012
:1019A000034800884FF6EF710840014908807047EE
:1019B0000428004070B50024002500F081F83B4960
:1019C0000860084600683A49B0FBF1F439480088DD
:1019D000A0423CD037490C8040F2B27510E0284656
:1019E000FFF700FD40B1B4F5B77F02D3A4F5B7749B
:1019F00004E0681C85B206E0A4F26D14681C85B290
:101A0000B4F5B67FEBD800BF2B488580002516E0E3
:101A100029498888FFF7E6FC30B1012D04D11D2C3F
:101A200001D31D3C09E00CE02448405DA04203D8EE
:101A30002248405D241A00E003E0681C85B21C2C9B
:101A4000E6D200BF681C1C498871601CC871174829
:101A500000681749B0FBF1F201FB12044FF461601A
:101A6000B4FBF0F0144908704FF46160B4FBF0F17E
:101A700000FB11403C21B0FBF1F00F4948704FF4DE
:101A80006160B4FBF0F100FB11403C21B0FBF1F2CE
:101A900001FB1200084988700B46DA799979988819
:101AA00000F02AF804490872002070BD30000020C0
:101AB0008051010034000020F02100206C660008F5
:101AC000002103480188001F008841EA0040704758
:101AD0001C28004001460020064A12880A40D0B265
:101AE000044A121F12880A4012B108B1012000E016
:101AF0000020704704280040F0B503460C46154608
:101B0000642093FBF0F0C6B2642093FBF0F700FB77
:101B10001730C1B2132E02DD01F16400C1B20846D4
:101B2000CF1701EB977701EBA707BAB2072092FB1B
:101B3000F0F700FB172082B25719601EDFF82CC0A7
:101B40001CF80000384482B2CF1701EB9777BF1022
:101B5000A1EB87071FB9032C01DA501E82B20720C0
:101B600092FBF0F700FB1720C0B2F0BD60660008E2
:101B70000EB50120FFF7AEFF08B1FFF71BFF0220F3
:101B8000FFF7A8FFA0B10220FFF7F8FEFFF712FF52
:101B90000A48807809494978084A1278CDE9002135
:101BA00002900648C3798279818805A000F0A2FDE1
:101BB0000520FFF7E3FE00F015F90EBDF02100202F
:101BC000416C61726D2054696D653A25642D256400
:101BD0002D25642025643A25643A25640A00000016
:101BE00029B1064A12880243044B1A8004E0034AD2
:101BF00012888243014B1A80704700000028004081
:101C00001CB5002401214FF0C050FFF7E1FD012079
:101C1000FFF7D6FD0420FEF78FFF45F25101884201
:101C200040D0FEF781FF0120FFF780FE04E0601C3A
:101C3000C4B20A2001F09CFC4120FFF759FE08B90C
:101C4000FA2CF4DBFA2C01DB01201CBD4FF4807070
:101C5000FFF78CFE0120FFF783FE00F0C3F800F0D1
:101C6000CBF801210846FFF7BBFF00F0BBF8FFF7F8
:101C70008DFE47F6FF7000F0A5F800F0B3F80020E5
:101C8000102116230A46CDE90010022140F2E4702B
:101C900000F026F8FFF784FE45F251010420FEF71C
:101CA00059FF07E000F0A8F801210846FFF798FF68
:101CB00000F098F800F004F8FFF77CFE0020C4E77D
:101CC00008B503208DF8000000208DF801008DF884
:101CD000020001208DF803006846FFF72BFC08BDC9
:101CE0002DE9F05F06460F4690469946DDE90AABBE
:101CF000002440F2B270864203DB40F63300864295
:101D000002DD0120BDE8F09F40F2B2750AE02846EE
:101D1000FFF768FB10B12048044401E01F48044469
:101D2000681C85B2B542F2DB781EC7B2002510E010
:101D30001B48405D40F2A321484304EBC0143046E9
:101D4000FFF750FB18B1012D01D116480444681C5F
:101D500085B2BD42ECDBA8F1010040F2A32148436B
:101D600004EBC014C9EB4910C0EB092004EB0014CC
:101D7000CAEB0A1004EB80045C4401214FF0C05010
:101D8000FFF726FD0120FFF71BFD204600F00CF8B1
:101D900000F028F80020B5E70085E2018033E1017A
:101DA0006C6600088051010000B50246FFF7EEFDA9
:101DB000100C03490880091D0A80FFF7F1FD00BDE2
:101DC0001828004000B50246FFF7E0FDC2F30340CB
:101DD00003490880091D0A80FFF7E2FD00BD0000ED
:101DE0000828004000BF0348008800F020000028B9
:101DF000F9D0704704280040074800884FF6F77173
:101E000008400549088000BF0348008800F008002A
:101E10000028F9D0704700000428004070470000F7
:101E200000B587B001218803FFF7E2FC01210420FF
:101E3000FFF7DEFC04208DF81B0003208DF81A004C
:101E40004FF48060ADF8180006A92148FEF790FF16
:101E500018208DF81B0003208DF81A004FF4007035
:101E6000ADF8180006A91A48FEF782FF4FF4E130DA
:101E700002900020ADF814000C20ADF812000020F4
:101E8000ADF81000ADF80E00ADF80C0002A9114835
:101E900000F09CFA012240F225510E4800F071FA40
:101EA0004FF4A060FFF77EFB25208DF80400012091
:101EB0008DF807008DF805008DF8060001A8FFF7E2
:101EC00039FB0121034800F019FA07B000BD0000FA
:101ED000000801400038014010B50446214605487D
:101EE00000F0E5FA00BF8021024800F013FA002854
:101EF000F9D010BD0038014010B500F001F810BD58
:101F00000CB50020019000903348006840F4803008
:101F10003149086000BF3048006800F4003000908C
:101F20000198401C0190009818B90198B0F5A06F75
:101F3000F1D12948006800F4003010B10120009070
:101F400001E0002000900098012843D12348006858
:101F500040F01000214908600846006820F00300A6
:101F600008600846006840F0020008601A484068AF
:101F7000194948600846406848600846406840F48F
:101F8000806048600846406820F47C10486008463D
:101F9000406840F4E81048600846006840F08070EF
:101FA000086000BF0C48006800F000700028F9D0FD
:101FB0000948406820F00300074948600846406827
:101FC00040F00200486000BF0348406800F00C0089
:101FD0000828F9D10CBD000000100240002002408A
:101FE0007047000010B51348006840F00100114927
:101FF000086008464068104908400E494860084695
:1020000000680E4908400B4908600846006820F443
:10201000802008600846406820F4FE0048604FF4C5
:102020001F008860FFF768FF4FF0006004490860F8
:1020300010BD0000001002400000FFF8FFFFF6FE98
:1020400008ED00E030B587B00121880700F06AF89C
:10205000012831D100F0E4FFFFF7ACFC17484078CD
:1020600000901648037816A200210120FFF732FBEA
:1020700002F0AAFC144815A2462103680120FFF7CC
:1020800029FB14494868FEF77FFB04460D461148BA
:10209000006811A1CDE90245CDE9041011A000901E
:1020A000094812A2036814480168144800F022FB92
:1020B0000121880700F027F807B030BDF02100208B
:1020C00025643A25640000003800002073746570B0
:1020D0003A256400280000206865617274526174BA
:1020E0006500000053704F3200000000746F74618F
:1020F0006C53746570000000E0000020D07200088E
:10210000CA4302827047CA430282704721B10288E3
:1021100042F00102028004E002884FF6FE731A408A
:102120000280704730B50246002000230024158A43
:1021300005EA0103958905EA010413B10CB10120F8
:1021400000E0002030BD1AB183890B43838102E097
:1021500083898B438381704701894FF6F872114060
:1021600001817047002202881D4B98420ED01D4B02
:1021700098420BD0B0F1804F08D01B4B984205D04D
:102180001A4B984202D01A4B984204D14FF68F73E3
:102190001A404B881A43174B984207D0164B984267
:1021A00004D04FF6FF431A40CB881A4302808B8835
:1021B00083850B8803850A4B98420BD0094B9842C4
:1021C00008D00E4B984205D00D4B984202D00D4BD3
:1021D000984201D10B7A0386012383827047000065
:1021E000002C014000340140000400400008004081
:1021F000000C00400010004000140040004001406E
:1022000000440140004801401FB501210846FFF786
:10221000DFFA4FF08040FFF79FFF0020ADF80A0083
:10222000ADF8060041F28730ADF8080041F61F40D6
:10223000ADF8040000208DF80C0001A94FF080409B
:10224000FFF790FF01218807FFF75AFF012211468F
:102250009007FFF778FF4FF4A060FFF7A3F91C2069
:102260008DF8000001208DF8030002208DF8010098
:1022700001208DF802006846FFF75CF9012188070C
:10228000FFF744FF1FBD000010B540F2255118486C
:1022900000F04DF801282AD1154800F003F9C1B229
:1022A000144802780078401C124B18701248815470
:1022B00018460078801E1049085C0D2801D10120C5
:1022C00000E000200B490978491E0B4A515C0A299D
:1022D00001D1012100E00021084340B1002105485F
:1022E0000078801E044A115400200249087010BD75
:1022F00000380140E40000200C22002021B1828936
:1023000042F40052828104E082894DF6FF731A4044
:102310008281704702460020B1F5007F00D100BFE6
:1023200013880B400BB1012000E00020704770B50E
:102330000246002400230025002040F66A16B14220
:1023400000D100BFC1F3421501F01F03012606FAB8
:1023500003F3012D02D19689334006E0022D02D10C
:10236000168A334001E0968A33400C12012606FAA1
:1023700004F41688344013B10CB1012000E00020B1
:1023800070BDF0B50346002400260025002040F66D
:102390006A17B94200D100BF1846C1F3421401F0D8
:1023A0001F06012707FA06F5012C01D10C3004E0C5
:1023B000022C01D1103000E014301AB107682F430D
:1023C000076002E00768AF430760F0BD2DE9F04702
:1023D00086B005460E460024A24600BFA14600274F
:1023E000B08900B100BF2F462C8A4CF6FF70044024
:1023F000F08804432C82AC894EF6F3100440B08878
:1024000031890843718908430443AC81AC8A4FF693
:10241000FF400440B0890443AC8201A8FFF7FEF9F5
:102420001F48874202D1DDF810A001E0DDF80CA0C2
:10243000A88900F4004040B10AEBCA0000EB0A1082
:1024400031684900B0FBF1F807E00AEBCA0000EB85
:102450000A1031688900B0FBF1F86420B8FBF0F095
:1024600004012009642101FB1089A88900F40040BF
:1024700040B1322000EBC900B0FBF1F000F00700E2
:10248000044308E0322000EB09106421B0FBF1F0B6
:1024900000F00F0004432C8106B0BDE8F087000077
:1024A0000038014001468888C0F308007047C1F336
:1024B00008028280704700BFFEE700002DE9F0416E
:1024C00004460D46054A064B20462946FDF750FFB7
:1024D000064600F007F8BDE8F0810000182D4454CE
:1024E000FB21F93F2DE9F04F93B004460D464FF024
:1024F000000B0022134620462946FEF759F903D265
:102500004FF0010B85F00045704A714B204629467B
:1025100003F0FCF904460D466C4A6E4B20462946F2
:10252000FEF75EF90ED2BBF1000F01D1012000E0F1
:1025300000208346654A674B20462946FDF7B9FFD0
:1025400004460D46614A644B20462946FEF748F989
:1025500007D25E4A5F4B20462946FDF7ADFF044691
:102560000D465E4A5E4B20462946FEF71AF8CDE935
:102570000E01FEF7D1F882465046FEF78FF8574A13
:10258000574BCDE90C01FDF79AFF22462B46CDE9CA
:102590000E01FDF791FF06460F46504A514B30465B
:1025A0003946FEF71DF909D20AF1010A4B4A4C4B94
:1025B00030463946FDF77DFF06460F464A4800EB98
:1025C000CA00D0E90089CAF16400474901EBC000A4
:1025D00003C8CDE9100132463B4630463946FDF787
:1025E0006EFF32463B46CDE90401FDF768FF3246F7
:1025F0003B46CDE90601FDF762FF42464B46CDE979
:102600000801FDF75CFF0022384BCDE90A01FDF718
:10261000C8FF32463B46CDE90E0130463946FDF74C
:102620004EFF32463B46CDE90201FDF748FFCDE9BA
:102630000401DDE91023FDF742FF00222C4BCDE918
:102640000601FDF7AEFF32463B46CDE90A013046B2
:102650003946FDF734FF42464B46CDE90001FDF710
:102660002EFF00224FF08043CDE90201FDF799FFD4
:10267000CDE9060130463946DDE91023FDF71FFF9D
:1026800042464B46CDE90201FDF772FECDE9040159
:10269000DDE90623FDF70DFFCDE90801DDE90A2399
:1026A000FDF707FFCDE90C01DDE90E23FDF760FE24
:1026B00004460D46BBF1000F05D0204685F00041D1
:1026C00013B0BDE8F08F20462946F9E7182D445491
:1026D000FB211940FB210940FB21F93F1A271792E2
:1026E000BF15903FBF15803F386300080000384099
:1026F000000018400FB4054B10B503A9044A029816
:1027000000F0F2F810BC5DF814FB0000D5410008A1
:10271000E800002037B514460846064B6A462146B5
:1027200000F0E2F804466946002000F074FC204600
:102730003EBD00001730000802E008C8121F08C1A3
:10274000002AFAD170477047002001E001C1121F32
:10275000002AFBD170470000014908607047000063
:10276000EC0000202DE9FF5F82B00021DDE904309C
:10277000020DDDF840B0034318D044F61050A2F229
:10278000FF3242431514119801281FD0A5EB0B000E
:10279000401C5FEA000A4FF000064E4FDFF8389108
:1027A000B046504615D5CAF1000413E01198012433
:1027B0004AA3012801D16FEA0B010298119AC0E9DE
:1027C0000031C0E9024206B0BDE8F09FCBF1000045
:1027D000DFE704460021404A491842EB0450CDE9A6
:1027E000001012E0E00707D032463B46404649461B
:1027F000FDF765FE8046894632463B46104619463F
:10280000FDF75DFE06460F466410002CEAD1DDE9B7
:102810000401DDE90023BAF1000F06DAFDF74FFEEF
:1028200042464B46FDF74BFE05E0FDF7BAFE424639
:102830004B46FDF7B6FE04460E460022284BFDF738
:10284000CFFF03D84FF0FF30014607E00022254BB1
:1028500020463146FDF78CFDFEF73BF9102409E0D8
:10286000002C0ADB0A220023FEF70EF8039B30320D
:102870001A55641E50EA0102F2D1641C039AC4F195
:1028800011031444119A012A03D0012208430DD1E7
:102890000AE0084304D000204FF0110B119072E7BA
:1028A000A3EB0B056D1E0DE05B4504DD4FF0000250
:1028B00005F1010504E003DA4FF00002A5F101057E
:1028C000002AECD002981199C0E90231C0E9004514
:1028D00079E70000000014400000F03F30000000E5
:1028E0000000F0430000E03F2DE9FF4F95B09B460C
:1028F0008946064600250FE2252877D10024274681
:10290000F84A0121059400E0044316F8013F203BFA
:1029100001FA03F01042F7D130782A2811D06FF075
:102920002F033078A0F13002092A16D8059A44F016
:10293000020402EB820203EB42021044761C059073
:10294000EFE759F8042B0592002A03DA504244F4C9
:102950000054059044F00204761C30782E2816D1DD
:1029600016F8010F44F004042A280DD06FF02F024E
:102970003078A0F13003092B09D807EB870302EB6D
:102980004303C718761CF3E759F8047B761C3078AC
:102990006C280FD006DC4C2817D068280DD06A2888
:1029A00014D104E0742810D07A280FD10DE044F43B
:1029B00000140AE044F4801401E044F440147278F6
:1029C000824202D104F58014761C761C3078662889
:1029D0000BD013DC582877D009DC002875D04528A7
:1029E000F6D04628F4D047281AD19DE118E0632894
:1029F00035D0642879D0652812D195E1702873D03C
:102A000008DC6728F1D069286FD06E280DD06F28B8
:102A100006D1B5E073282CD0752875D0782874D0ED
:102A20005A46179990476D1C75E1C4F3025002286D
:102A300009D003280DD0D9F8001004280DD00D605E
:102A400009F1040967E1D9F80010EA17C1E9005259
:102A5000F6E7D9F800100D80F2E70D70F0E719F8ED
:102A6000041B8DF8001000208DF80100EA460120BB
:102A700003E059F804AB4FF0FF3061074FF000015D
:102A800002D40DE008F101018846B9420FDA804511
:102A9000F8DB1AF808100029F4D108E008F1010168
:102AA00088468142FADB1AF808100029F6D1059809
:102AB0005B46A0EB080721463846179A00F094FAC7
:102AC000284400EB080507E04DE029E10DE01AF885
:102AD000010B5A4617999047B8F10108F7D25B46A7
:102AE00021463846179A13E142E00A220092C4F3C5
:102AF00002524FF0000A022A08D059F804CB032AE8
:102B00004FEAEC710AD00DE029E02AE009F1070153
:102B100021F00702F2E802C1914609E00FFA8CFCAD
:102B20004FEAEC71042A03D14FFA8CFC4FEAEC71A6
:102B3000002907DA0A460021DCF1000C61EB0201F2
:102B40002D2202E0220504D52B228DF8042001223B
:102B500003E0E20701D02022F7E7904659E00A217E
:102B600002E010220DE010214FF0000A00910BE06E
:102B700010224FF0000A44F004040827009203E0FA
:102B800008224FF0000A0092C4F30252022A05D034
:102B900059F804CB0021032A08D009E009F1070104
:102BA00021F00702F2E802C1914605E01FFA8CFC11
:102BB000042A01D10CF0FF0C4FF00008220728D5A1
:102BC000702806D0009B83F0100353EA0A0305D057
:102BD0000EE040228DF80420012208E05CEA0102A8
:102BE00006D030228DF804208DF805000222904690
:102BF000009B83F0080353EA0A030AD15CEA01024E
:102C000001D1620705D530228DF804204FF001086C
:102C10007F1E582804D034A003900EA802900DE027
:102C200036A0F9E753466046009AFDF72DFE84462C
:102C30000398825C0298401E029002705CEA0100D8
:102C4000F0D1029806A9081A00F1200A600702D5FF
:102C500024F4803400E00127574502DDA7EB0A0089
:102C600000E0002000EB0A01009005984144401A62
:102C70000590E00306D45B462146179A059800F0BC
:102C8000B3F90544002706E001A85A46C05D17992C
:102C900090476D1C7F1C4745F6DBE0030CD55B4677
:102CA0002146179A059800F09FF9054404E030206A
:102CB0005A46179990476D1C0099481E00900029AC
:102CC000F5DC08E0029802995A460078491C029106
:102CD000179990476D1CBAF10001AAF1010AF1DCC5
:102CE00065E10000092801003031323334353637D0
:102CF0003839616263646566000000003031323348
:102D000034353637383941424344454600000000E7
:102D100000F058F90544761C307800287FF4ECADBB
:102D200019B02846BDE8F08F620700D4062709F1E4
:102D3000070222F0070CFCE80223E14603F00048FA
:102D40005FEA080C02D00FF2702C0DE05FEA045C21
:102D500002D50FF2682C07E05FEAC47C02D00FF2C4
:102D6000602C01E0AFF2700C4FF0FF3823F000430D
:102D7000CDF850C065280CD006DC452809D046287F
:102D80001DD047283DD13DE0662818D067287ED168
:102D900038E00021112F01DB112000E0781CCDE983
:102DA000000106A90EA8FFF7DDFCDDE90F010E9A70
:102DB00003910021009207F1010A04914DE04FF0C8
:102DC00000400097CDE9011006A90EA8FFF7CAFC44
:102DD000DDE90F0203920E9B11990022DDF80CA091
:102DE0000093049211B9791C00EB010AB7EB0A00B9
:102DF00004D4C0F1FF3007F1010A0490AAEB0700E8
:102E0000019044E0012F00DA01270021112F01DD9C
:102E1000112000E03846CDE9000106A90EA8FFF711
:102E2000A1FCDDE90F010E9A0391002104910092AB
:102E3000BA4621070CD40399514500DA8A46BAF103
:102E4000010F05DD009AAAF10101515C302908D07B
:102E5000B84202DA10F1040F06DA0121CDE90110BF
:102E600015E0AAF10101E9E7002805DC0499014415
:102E70000491AAEB000102E0411C514500DD8A46A5
:102E80000499401A401C01904FF000400290200726
:102E900004D40198504501DBCDF8048000208DF862
:102EA0004F0002980DF14F07B0F1004F25D02B20B5
:102EB0000E9002984FF0020800280CDA404202906F
:102EC0002D200E9007E00A210298FDF7C7FC303153
:102ED000029007F8011DB8F10001A8F10108F2DC29
:102EE00002980028EFD1791E0E980870307800F013
:102EF000200040F0450007F8020D12A8C01B00F1A9
:102F000007081498007800B1012000EB0A0101982D
:102F100001EBE07105984144401A401E0590E00322
:102F200006D45B462146179A059800F05DF80544E3
:102F30001498007818B15A46179990476D1CE00311
:102F400024D55B462146179A059800F04DF80544B4
:102F50001CE00498002807DBDDE90301884203DD5B
:102F60000098405C179901E0179930205A46904725
:102F7000049805F10105401C04900198401E019041
:102F800004D12E205A46179990476D1CBAF10001C2
:102F9000AAF1010ADDDC05E017F8010B5A46179982
:102FA00090476D1CB8F10001A8F10108F4DC5B4604
:102FB0002146179A0598ABE62D0000002B00000073
:102FC000200000002DE9F041044600251E4617466A
:102FD000880404D405E039462020B0476D1C641EE7
:102FE000F9D52846BDE8F0812DE9F04104460025D9
:102FF0001E469046C80301D5302700E020278804EC
:1030000004D505E041463846B0476D1C641EF9D52D
:103010002846BDE8F0810A68531C0B6010707047A9
:103020002DE9FC4100F05AFA00F040F8144815A2CE
:10303000002103680620FEF74DFB11494868FDF7A3
:10304000A3FB0646134A144BFDF7CAFB02D21148F4
:10305000114903E00A494868FDF796FB0446FDF76D
:10306000D7FB074948604868FDF78EFB0BA2CDE906
:10307000000100210420FEF72DFBBDE8FC810000CB
:103080002800002068656172743A2533642F6D69E9
:103090006E2020008FC2F5285CFF584053704F32DD
:1030A0003A25322E32662525202000002DE9F04FEA
:1030B00091B04FF00009CA4600200F900E900024F6
:1030C0000EE0F84850F834104846FDF789F881467C
:1030D000F54850F834105046FDF782F88246641CDB
:1030E000B4F5007FEDD34FF088414846FDF702F973
:1030F00081464FF088415046FDF7FCF88246002497
:1031000012E0E84951F834004946FDF7BBF8E549BB
:1031100041F83400E44951F834005146FDF7B2F863
:10312000E14941F83400641CB4F5007FE9D301247F
:103130004CE0DC4850F834104FF08040FDF7A8F820
:103140000646601ED74A52F830103046FDF748F860
:103150000546D44A601C52F830102846FDF740F866
:1031600010901098FDF710FB07460022CF4BFDF79B
:1031700018FA0546FDF74CFBCA4941F83400CA4825
:1031800050F834104FF08040FDF782F80646601E7C
:10319000C54A52F830103046FDF722F80546C24ABB
:1031A000601C52F830102846FDF71AF8109010985D
:1031B000FDF7EAFA07460022BC4BFDF7F2F9054697
:1031C000FDF726FBB84941F83400641CB4F5FF7FD5
:1031D000AFD9002490E0B34B621C53F832101A466A
:1031E00052F83400FCF7FCFFAE4A0B90A01C52F8DA
:1031F00030100B98FCF7F4FF8346AA4AE01C52F803
:1032000030105846FCF7ECFF8046A64A201D52F8C5
:1032100030104046FCF7E4FF0746A24A601D52F812
:1032200030103846FCF7DCFF06469E4AA01D52F8D7
:1032300030103046FCF7D4FF05469A4AE01D52F89C
:1032400030102846FCF7CCFF10901098FDF79CFA40
:1032500007460022964BFDF7A4F90546FDF7D8FA7C
:10326000904941F83400904B621C53F832101A46D2
:1032700052F83400FCF7B4FF8B4A0B90A01C52F8B4
:1032800030100B98FCF7ACFF8346874AE01C52F8DD
:1032900030105846FCF7A4FF8046834A201D52F8A0
:1032A00030104046FCF79CFF07467F4A601D52F8ED
:1032B00030103846FCF794FF06467B4AA01D52F8B2
:1032C00030103046FCF78CFF0546774AE01D52F877
:1032D00030102846FCF784FF10901098FDF754FA40
:1032E00007460022724BFDF75CF90546FDF790FAA0
:1032F0006D4941F83400641CB4F5FC7FFFF46BAFFA
:1033000000206C4908606748FDF76CFC6648FDF7D3
:1033100069FC002438E0634A02EBC4025168614A48
:1033200002EBC4025068FCF7B3FF06465D4A52F850
:10333000341052F83400FCF7ABFF07463146FCF777
:103340004FFF054602F0E8FC564941F83400564A62
:1033500002EBC4025168544A02EBC4025068FCF705
:1033600097FF0646504A52F8341052F83400FCF7E2
:103370008FFF07463146FCF733FF054602F0CCFCD1
:10338000484941F83400641CB4F5007FC3D30124DC
:103390000EE0444850F834100F98FCF721FF0F90CE
:1033A000414850F834100E98FCF71AFF0E90641C38
:1033B000B4F5007FEDD3002408E03A4951F8340019
:1033C0003D49FDF741FA00D802E0641C322CF4D3E9
:1033D00000BF1E21334800F0E4FE0D901E2132484C
:1033E00000F0DFFE0C902D2C55D30D98FDF756F90B
:1033F0000022324BCDE90801FDF761F805460022B5
:103400004FF08143FDF7CDF80746FDF7A4F9834659
:103410002B48C0F800B051460F98FCF739FF05461D
:1034200049460E98FCF734FF06462946FCF762FF32
:103430000B900B98FDF7A8F90546224A224BFDF7A1
:103440003EF8CDE904010B98FDF79EF905460E46BE
:103450000B98FDF799F91D4A1D4BCDE90001FDF7C9
:103460002EF807462A463346FDF729F8CDE9020132
:10347000DDE90423FCF77CFF164A174BCDE9060172
:10348000FCF776FFCDE90801FDF7C2F90A900C4977
:103490000A98486003E0002009490860486011B0BC
:1034A000BDE8F08FF00000207011002000001040F7
:1034B000000020401C00002000002041004CBD40C6
:1034C00028000020B4C876BE9F5A3E4048E17A14D6
:1034D000AE8746C0AE47E17A14B6574010B500201B
:1034E0001D49086031E029E001F008FA1A48006837
:1034F000B0F5007F22D219480088FDF7CAF81849B4
:10350000154A126841F832000020134A126801EB94
:10351000C201486013480088FDF7BBF812490E4A03
:10352000126841F8320000200B4A126801EBC20118
:10353000486009480068401C074908604FF4007162
:103540000A48FDF7A0FC0028CED003480068B0F57B
:10355000007FC8D310BD00001C0000201600002012
:10356000F00000201800002070110020000C014025
:1035700010B5044603E04FF47A7000F005F8201E01
:10358000A4F10104F7D110BD014605E0002001E0DF
:10359000421CD0B20A28FBDB0A1EA1F10101F5D1C1
:1035A000704738B5044664B120208DF8000028200B
:1035B0008DF8010030208DF8020038208DF80300CE
:1035C00004E0A32204216846FCF7DDFD6A460421DD
:1035D00040F69E2002F034F901F0CEFC38BD000028
:1035E0003EB5044602208DF80000CA208DF8010087
:1035F000E3208DF8020009208DF803006A460421BB
:10360000682002F01DF9A3208DF8000004F04000AE
:1036100048B1C0208DF80100C8208DF80200C220FA
:103620008DF8030006E0A3208DF801008DF802005C
:103630008DF8030004F4C07048B1C4208DF8040074
:10364000CC208DF80500C6208DF8060006E0A320EA
:103650008DF804008DF805008DF80600A3208DF884
:1036600007008DF808008DF809006A460A2140F627
:10367000A72002F0E5F804F0030018B120208DF82F
:10368000000002E0D8208DF800006A46012140F6D3
:10369000B62002F0D5F804F0200018B1012000F0A7
:1036A000ADF802E0002000F0A9F804F4C07008B3FF
:1036B00004F4807060B1B2208DF800008B208DF88A
:1036C0000100B6208DF802009B208DF803000BE06E
:1036D000B0208DF8000080208DF80100B4208DF816
:1036E000020090208DF803006A46042140F6A220D3
:1036F00002F0A6F804F0010020B3F8208DF80000D5
:103700006A4601214FF40B6002F09AF8FA21072073
:1037100000F068FB072000F02FFB012000F04FFBBA
:10372000642000F02FFC4FF4FA7000F03EFCC8213A
:10373000304800F0DFFA282000F0F8FA0A2000F004
:1037400008FB08E0D8208DF800006A4601214FF4FC
:103750000B6002F075F804F0020018B1D9208DF862
:10376000000002E0D8208DF800006A46012140F2F6
:103770003D7002F065F804F0040018B1012000F07B
:1037800069F802E0002000F065F804F0100018B1BC
:103790000120FFF706FF02E00020FFF702FF44F0E0
:1037A00008001549488101F0E7FB002012498873A1
:1037B00004F0400018B10846807B801D887304F433
:1037C000C07020B10C48807B801D0B49887304F0C9
:1037D000140020B10848807B10300749887304F03A
:1037E000030020B10448807B001D0349887300203A
:1037F0003EBD000009E3CA02FC2100203EB504469C
:103800006CB10EA1D1E900208968CDE900200291B8
:103810006A4609214FF4976002F012F83EBD0AA2F1
:10382000D2E900109268CDE9010200916A460921AF
:103830004FF4976002F004F8F0E70000B8AAB38DE7
:10384000B4980D355D000000B8AAAAAAB088C3C517
:10385000C700000038B5044664B1C0208DF80000F0
:10386000C2208DF80100C4208DF80200C6208DF81A
:10387000030004E08B2204216846FCF784FC6A46BE
:10388000042140F6982001F0DBFF01F075FB38BD04
:1038900038B5044614B94FF0FF3038BD6A460421EC
:1038A0004FF4587001F028FB10B14FF0FF30F4E7EF
:1038B0009DF8000000069DF8011040EA01409DF8C7
:1038C000021040EA01209DF8031008432060002008
:1038D000E3E7000010B5C8234FF48062024940F6C8
:1038E000F63001F01FFA10BDD866000870B588B038
:1038F000064601A801F0D0F8BDF804000021C90374
:1039000041EA5045C4034448007A00F0030056F8E9
:10391000200005904048007A00F0040010B105989E
:10392000404205903C48007AC0F3C10056F82000A0
:1039300006903948007A00F0200010B10698404205
:1039400006903548007AC0F3811056F820000790A1
:103950003148008900F4807010B107984042079008
:103960000598C117A0FB042301FB043100FB0510DF
:10397000810041EA927005900698C117A0FB0423CC
:1039800001FB043100FB0510810041EA92700690B2
:103990000798C117A0FB042301FB043100FB0510AD
:1039A000810041EA927007900598000E8DF808009A
:1039B0000598000C8DF809000598000A8DF80A009A
:1039C0000598C0B28DF80B000698000E8DF80C001B
:1039D0000698000C8DF80D000698000A8DF80E0070
:1039E0000698C0B28DF80F000798000E8DF81000F1
:1039F0000798000C8DF811000798000A8DF8120046
:103A00000798C0B28DF8130002AA0C214FF425705C
:103A100001F016FF08B070BDFC21002030B585B064
:103A2000044616A207CA02AB07C3C82C03DD4FF039
:103A3000FF3005B030BDC82090FBF4F0401E85B2C9
:103A4000280A8DF80000E8B28DF801006A460221CC
:103A500040F2162001F0F4FE10B14FF0FF30E8E71D
:103A600002AA0C2140F6C12001F0EAFE10B14FF08D
:103A7000FF30DEE7044884810020DAE7FEF2ABC4C1
:103A8000AAF1DFDFBBAFDFDFFC2100201FB504465A
:103A90004848007A00F0030054F82000019045489F
:103AA000007A00F0040010B10198404201904148B2
:103AB000007AC0F3C10054F8200002903D48007A1B
:103AC00000F0200010B10298404202903948007A7C
:103AD000C0F3811054F8200003903648008900F4A8
:103AE000807010B10398404203903349019880FBE5
:103AF0000101800F40EA810001902F49029880FB6C
:103B00000110820042EA917002902B49039880FBD9
:103B10000110820042EA917003900198000E8DF826
:103B200000000198000C8DF801000198000A8DF842
:103B300002000198C0B28DF803006A4604214FF4D8
:103B4000747001F07DFE18B14FF0FF3004B010BD6D
:103B50000298000E8DF800000298000C8DF801000C
:103B60000298000A8DF802000298C0B28DF8030096
:103B70006A4604214FF4757001F062FE10B14FF0F7
:103B8000FF30E3E70398000E8DF800000398000C67
:103B90008DF801000398000A8DF802000398C0B266
:103BA0008DF803006A4604214FF4767001F048FE58
:103BB000CCE70000FC21002009E3CA0210B586B062
:103BC000044647A00068039046A00068029046A003
:103BD0000068019045A00068009004F0030003A96C
:103BE000085C8DF8140003A8C4F3C101405C8DF893
:103BF000150003A8C4F38111405C8DF8160004F091
:103C0000030002A9085C8DF8100002A8C4F3C101EA
:103C1000405C8DF8110002A8C4F38111405C8DF85E
:103C2000120005AA032140F2264001F009FE18B156
:103C30004FF0FF3006B010BD04AA032140F22A4025
:103C400001F0FEFD10B14FF0FF30F3E70198059051
:103C50000098049004F0040058B19DF8140040F05E
:103C600001008DF814009DF8100040F001008DF85F
:103C7000100004F0200058B19DF8150040F001003C
:103C80008DF815009DF8110040F001008DF811002D
:103C900004F4807058B19DF8160040F001008DF8D2
:103CA00016009DF8120040F001008DF8120005AAE0
:103CB00003214FF4886001F0C3FD10B14FF0FF30D5
:103CC000B8E704AA032140F2314001F0B9FD10B178
:103CD0004FF0FF30AEE7064804810020AAE700005D
:103CE0004CCD6C000CC92C0036567600264666007A
:103CF000FC210020F8B505460E464FF47A7095FB7E
:103D0000F0F000FB06F4200E8DF80000200C8DF87A
:103D10000100200A8DF80200E0B28DF803006A4627
:103D200004214FF4AE7001F08BFDF8BD38B50446A8
:103D3000052094FBF0F084B220128DF80000E0B270
:103D40008DF801006A4602214FF4AD7001F078FD54
:103D500038BD38B50446052094FBF0F084B220123B
:103D60008DF80000E0B28DF801006A4602214FF4A0
:103D7000AC7001F065FD38BD38B5044600200090F8
:103D800004F0010020B19DF8000040F030000090E8
:103D900004F0020020B19DF8000040F00C000090FB
:103DA00004F0040020B19DF8000040F003000090F2
:103DB0006A4601214FF4A47001F042FD38BD38B5C8
:103DC0000446012C01DA012402E0042C00DD042465
:103DD000601EC0B200906A46012140F24F1001F00F
:103DE0002FFD38BD2DE9FC4706460F4606F00700BB
:103DF00010B1B7F5C86F03DD4FF0FF30BDE8FC87A9
:103E00003846FCF746FC81465949FCF773FA804670
:103E1000684600F01BFE9DF80000022806D004282A
:103E200016D0082826D0102848D135E04FF08D4113
:103E30004046FCF72DFA8146FCF75AFC84B24D4906
:103E40004046FCF725FA8146FCF752FC85B238E083
:103E50004FF08C414046FCF71BFA8146FCF748FCCA
:103E600084B245494046FCF713FA8146FCF740FC12
:103E700085B226E04FF08B414046FCF709FA8146B7
:103E8000FCF736FC84B23D494046FCF701FA814616
:103E9000FCF72EFC85B214E04FF08A414046FCF757
:103EA000F7F98146FCF724FC84B235494046FCF71B
:103EB000EFF98146FCF71CFC85B202E04FF0FF30C1
:103EC0009CE700BF20128DF80400E0B28DF80500D9
:103ED00028128DF80600E8B28DF8070006F0010000
:103EE000A0B101AA02214FF4EA7001F0A9FC10B1BF
:103EF0004FF0FF3082E70DF1060202214FF492707D
:103F000001F09EFC10B14FF0FF3077E706F00200A1
:103F1000A0B101AA02214FF4EC7001F091FC10B1A4
:103F20004FF0FF306AE70DF1060202214FF4947062
:103F300001F086FC10B14FF0FF305FE706F004009F
:103F4000A0B101AA02214FF4EE7001F079FC10B18A
:103F50004FF0FF3052E70DF1060202214FF4967048
:103F600001F06EFC10B14FF0FF3047E7002045E74D
:103F700000004843000040460000C04500004045A6
:103F80000000C04438B50446052094FBF0F085B22B
:103F900028128DF80000E8B28DF801006A4602216F
:103FA0004FF4EF7001F04CFC38BD38B504460520E5
:103FB00094FBF0F085B228128DF80000E8B28DF87D
:103FC00001006A4602214FF4ED7001F039FC38BD62
:103FD00010B54FF480713748FCF7DCF836A0FEF7D7
:103FE00089FBC820FFF7C4FA4FF480713148FCF711
:103FF000D1F834A0FEF77EFB0A20FFF7B9FA33A10F
:104000002C48FCF7D2F810B131A0FEF773FBC820A2
:10401000FFF7AEFA2DA12748FCF7C7F820B14FF4FF
:1040200080712448FCF7B6F82D4802682D480168D5
:104030002DA0FEF75FFB41F28830FFF799FA23A12C
:104040001C48FCF7B2F808B1032010BD4FF4807192
:104050001848FCF79FF82A4803682A4802682A484B
:1040600001682AA0FEF746FB0A20FFF781FA17A194
:104070001048FCF79AF808B10420E6E74FF4807185
:104080000C48FCF787F82C4801682CA0FEF732FB9F
:1040900041F28830FFF76CFA0CA10648FCF785F86E
:1040A00008B10520D1E74FF480710248FCF772F89F
:1040B0000020CAE70C22002041542B5253540D0A11
:1040C00000000000415445300D0A00004F4B000035
:1040D00041542B43574D4F44453D310D0A000000DC
:1040E000CC000020C800002041542B43574A4150C7
:1040F0003D222573222C222573220D0A0000000088
:10410000D8000020D4000020D000002041542B4DC6
:10411000515454555345524346473D302C312C227F
:104120002573222C222573222C222573222C302C3D
:10413000302C22220D0A0000DC00002041542B4DBF
:10414000515454434F4E4E3D302C222573222C3176
:104150003838332C310D0A0070B5054600241DE0B7
:1041600004F1B000C2B200217820FDF713F900225B
:1041700011467820FDF70EF9102200217820FDF776
:1041800009F9002606E02A4640217820FDF702F9C9
:10419000701CC6B2802EF6DB601CC4B2082CDFDBBC
:1041A00070BD2DE9F04105460E460424274655F81A
:1041B000348000BF09E055F834104046FCF744FB5A
:1041C00002D255F834802746641CB442F3DB3846EB
:1041D000BDE8F08170B504460D46E0B2FDF77CFE07
:1041E00001E0204670BD40210348FEF793F8002807
:1041F000F7D000BFF6E70000003801402DE9F04F8E
:1042000087B005460C46914601208DF8100000202D
:104210008DF81100FE4A1268517DFD4A52681078EF
:1042200004AB022200F0DDFA20B14FF0FF3007B0FE
:10423000BDE8F08FC820FFF79BF900208DF8100033
:10424000F34A1268517CF24A5268107804AB01229A
:1042500000F0C7FA10B14FF0FF30E8E7EC4A1268FF
:104260005179EB4A5268107804AB012200F0B9FA98
:1042700010B14FF0FF30DAE7E54A1268517DE44AA9
:104280005268107804AB012200F0ABFA10B14FF085
:10429000FF30CCE7DE4A1268917EDD4A5268107822
:1042A00004AB012200F09DFA10B14FF0FF30BEE7E1
:1042B000D74A12681179D64A5268107804AB0122A5
:1042C00000F08FFA10B14FF0FF30B0E70C208DF8FE
:1042D0001000CF4A12681179CD4A5268107804ABA9
:1042E000012200F07EFA10B14FF0FF309FE70F205F
:1042F000FFF73EF9C648406B407A8DF81000C44A7B
:1043000012689178C24A5268107804AB012200F01A
:1043100068FA10B14FF0FF3089E7BD48406B007A72
:104320008DF81000BA4A12685178B94A526810786C
:1043300004AB012200F055FA10B14FF0FF3076E7E0
:10434000B9F1000F07D0B248406B807A40F0E0002E
:104350008DF8100004E0AE48406B807A8DF81000B4
:10436000AB4A12689179AA4A5268107804AB0122CC
:1043700000F037FA10B14FF0FF3058E7B9F1000FF5
:1043800007D0A348406BC07A40F0E0008DF81000E1
:1043900003E0A048C07A8DF810009D4A1268D179D8
:1043A0009B4A5268107804AB012200F01AFA10B14F
:1043B0004FF0FF303BE7B9F1000F02D0C820FFF704
:1043C000D7F840208DF81000914A12681179904A70
:1043D0005268107804AB012200F003FA10B14FF0DC
:1043E000FF3024E778208DF81000894A126851794F
:1043F000874A5268107804AB012200F0F2F910B13C
:104400004FF0FF3013E783498889FFF7B1F80020A8
:104410008DF810007E4A126851797D4A52681078F2
:1044200004AB012200F0DDF910B14FF0FF30FEE6E1
:10443000774A1268117B764A5268107804AB0222E0
:1044400000F0BCF910B14FF0FF30F0E69DF811001C
:104450009DF8101040EA012B0C209BFBF0F0C6B237
:104460000020A86068602860A060606020608246CC
:1044700065E0674A1268517B654A5268107804AB60
:104480000C2200F09BF910B14FF0FF30CFE69DF801
:1044900011009DF8101040EA012000B2ADF80800AC
:1044A0009DF813009DF8121040EA012000B2ADF80B
:1044B0000A009DF815009DF8141040EA012000B292
:1044C000ADF80C00BDF90810206808442060BDF963
:1044D0000A10606808446060BDF90C10A0680844C8
:1044E000A0609DF817009DF8161040EA012000B268
:1044F000ADF800009DF819009DF8181040EA012061
:1045000000B2ADF802009DF81B009DF81A1040EAB9
:10451000012000B2ADF80400BDF90010286808447D
:104520002860BDF90210686808446860BDF904108D
:10453000A8680844A8600AF1010000F0FF0AB2452B
:1045400097DB3448D0F800C02868C117090441EA55
:1045500010410704624600233846FBF7E3FD32466C
:104560000023CDE90201FBF7DDFD28602948D0F8E2
:1045700000C06868C117090441EA10410704624697
:1045800000233846FBF7CEFD32460023CDE9020179
:10459000FBF7C8FD68601F48D0F800C0A868C117C5
:1045A000090441EA10410704624600233846FBF73C
:1045B000B9FD32460023CDE90201FBF7B3FDA86047
:1045C0001448D0F804C02168C817000440EA114814
:1045D0000F046246002338464146FBF7A3FD3246EE
:1045E0000023CDE90201FBF79DFD20600948D0F8CA
:1045F00004C06068C117090441EA1041070462461B
:1046000000233846FBF78EFD3246002304E000000D
:104610003C000020B0660008CDE90201FBF782FDF6
:1046200060601148D0F804C0A068C117090441EACD
:1046300010410704624600233846FBF773FD3246FB
:104640000023CDE90201FBF76DFDA060A068002802
:1046500004DDA068A0F58030A06003E0A06800F54C
:104660008030A0600020E2E5B066000808B50121B6
:104670000820FDF7BDF84FF44060ADF800000220BF
:104680008DF8020014208DF8030069460148FCF7FC
:104690006FFB08BD000C01402DE9F04105460F46B7
:1046A00014461E46FCF7C4FC10B90020BDE8F0819A
:1046B000002141EA4501C8B2FCF78CFCFCF706FD7D
:1046C00018B9FCF7E5FC0020F0E73846FCF782FC5F
:1046D000FCF7FCFCFCF7ACFC012101EB4501C8B286
:1046E000FCF778FCFCF7F2FC0CE0FCF747FC3070C0
:1046F000012C02D1FCF724FC01E0FCF703FC761C42
:10470000601EC4B2002CF0D1FCF7C2FC0120CDE742
:1047100070B504460D461646FCF78AFC08B9002021
:1047200070BD002141EA4401C8B2FCF753FCFCF71C
:10473000CDFC18B9FCF7ACFC0020F1E72846FCF7EB
:1047400049FCFCF7C3FC3046FCF744FCFCF7BEFC1C
:10475000FCF79EFC0120E3E72DE9F04105460E46FB
:1047600017469846FCF764FC10B90020BDE8F081BC
:10477000002141EA4501C8B2FCF72CFCFCF7A6FC7D
:1047800018B9FCF785FC0020F0E73046FCF722FC66
:10479000FCF79CFC00240BE018F80400FCF71AFC62
:1047A000FCF794FC18B9FCF773FC0020DEE7641CEE
:1047B000BC42F1DBFCF76CFC0120D7E72DE9F041AE
:1047C00004460D4616461F463B46324629462046BD
:1047D000FFF762FF10B10020BDE8F0814FF0FF301D
:1047E000FAE72DE9F04104460D4616461F463B46C2
:1047F000324629462046FFF7AFFF10B10020BDE842
:10480000F0814FF0FF30FAE770B50546284600F01A
:104810000FF80446E81C00F00BF844EAC00084B22C
:10482000A81D00F005F844EA801084B2204670BD4F
:10483000014691F90020002A01DD00201EE091F9D7
:104840000020002A01DA042018E091F90120002A52
:1048500001DD012012E091F90120002A01DA052092
:104860000CE091F90220002A01DD022006E091F916
:104870000220002A01DA062000E00720704700002D
:10488000FCF762FCFFF7F2FEFDF7BAF9FCF794FEC5
:104890000020FFF761FCFDF7C3FA0EA20021012002
:1048A000FCF718FF11A200210620FCF713FF0120DE
:1048B000FCF70EFEFFF78CFBFCF7EAFDFCF7FAFDB8
:1048C000FCF7ADFD0020FFF747FCFDF79DFC00BFA6
:1048D000FEE7000049576174636820697320696EC0
:1048E000697469616C697A696E672E0020202020E6
:1048F000506C656173652077616974001CB5002098
:104900002F4908802F4908800021AE20FCF77AFC4F
:104910000121AE20FCF776FC07208DF8000006236D
:104920006A460721AE20FCF72BFC9DF800404FF6AD
:10493000FF7000EA8434224800882044204908801F
:104940009DF801404FF6FF7000EA84140846008885
:10495000204408809DF80240A410084600882044A6
:1049600008809DF803404FF6FF7000EA8434154834
:1049700000882044134908809DF804404FF6FF70DA
:1049800000EA841408460088204408809DF8054009
:10499000A41008460088204408800846008842F297
:1049A0001071884202DC0020064908800448008813
:1049B00042F21071884202DC0020014908801CBDCF
:1049C000160000201800002010B5012000F026FD80
:1049D0000148FEF75DFF10BD3800002070B50446A9
:1049E000002624F00104184890F8240008B10020A3
:1049F00070BD1548807A10B94FF0FF30F8E71248C3
:104A0000057C807A2040104908740846007CA0424A
:104A100002D04FF0FF3600E0002614B90A48007DAE
:104A200018B1012001F006F802E0002001F002F8C0
:104A30003CB100F0A1FA20B1034805744FF0FF30FB
:104A4000D6E73046D4E700003C000020014611487C
:104A5000407A30B1012807D0022808D003280CD1B1
:104A600008E0022008700BE00420087008E008202D
:104A7000087005E01020087002E04FF0FF3070472A
:104A800000BF0448C07C18B108784006000E0870CA
:104A90000020F4E73C00002001461348407A30B182
:104AA000012808D002280AD0032810D10BE04FF4C7
:104AB000804008800EE041F69C7008800AE04FF4C8
:104AC0008050088006E04FF40060088002E04FF05C
:104AD000FF30704700BF0448C07C10B10888401008
:104AE00008800020F5E700003C0000200146024855
:104AF000007C0870002070473C00002001460F48F1
:104B0000007A30B1012807D0022809D003280FD13C
:104B10000AE0FA2008800EE04FF4FA7008800AE0FC
:104B20004FF47A70088006E04FF4FA60088002E0E3
:104B30000020088000BF00BF002070473C0000201C
:104B400001460E48007A30B1012807D0022808D06B
:104B500003280CD108E00A4808600BE00948086007
:104B600008E00948086005E00848086002E04FF0E6
:104B7000FF30704700BF0020FBE700003C00002032
:104B80000000034300008342333303423333834145
:104B900001461248C07A082817D2DFE800F017044F
:104BA000070A0D101318BC20088013E0622008804B
:104BB00010E02A2008800DE0142008800AE00A2076
:104BC000088007E00520088004E000BF00BF002047
:104BD000088000BF00BF0020704700003C0000209C
:104BE0000146064890F8240010B14FF0FF3070479E
:104BF0000248C08908800020F9E700003C0000203E
:104C00001CB580208DF80000454A1268517D444A49
:104C1000526810786B460122FFF7E3FD10B14FF0A8
:104C2000FF301CBD6420FEF7A3FC00208DF80000BF
:104C30003B4A1268517D3A4A526810786B4601220D
:104C4000FFF7CFFD10B14FF0FF30EAE748208DF8B5
:104C50000000334A1268117A314A526810786B4664
:104C60000122FFF7BEFD10B14FF0FF30D9E7FF2161
:104C70002B488172FF202A490872FF21284841727F
:104C8000C1724FF6FF71C181FF21017481744FF62B
:104C9000FF7101850121017380F82210002180F845
:104CA000231041750175163001604160816016382E
:104CB00080F8241080F82510C1844FF4FA6000F0C9
:104CC000F5FB10B14FF0FF30ABE7022000F08EFA99
:104CD00010B14FF0FF30A4E72A2000F061FC10B1C2
:104CE0004FF0FF309DE7322000F09CFC10B14FF0F8
:104CF000FF3096E70020FFF771FE10B14FF0FF3054
:104D00008FE700F0DFFE0A2000F058FB10B14FF0F3
:104D1000FF3086E7002000F0DFFC002081E7000084
:104D20003C0000202DE9F04385B005460E46904634
:104D30009946294890F8250020B14FF0FF3005B082
:104D4000BDE8F08316B94FF0FF30F8E7002423E008
:104D5000281B102801DD102000E0281B87B2321923
:104D60003946204600F06CFD10B14FF0FF30E6E709
:104D700001AA3946204600F0BFF810B14FF0FF30CD
:104D8000DDE730193A4601A9FBF71DFA10B16FF0C3
:104D90000100D4E7E01984B2AC42D9DB4FEA282005
:104DA0008DF8000008F0FF008DF801000A4A126833
:104DB000517F094A526810786B460222FFF711FDB5
:104DC00010B14FF0FF30BAE70121034880F82510F9
:104DD000A0F826900020B2E73C00002038B5044639
:104DE000282C02DD4FF0FF3038BDDCB9002000F088
:104DF000A1FB00208DF8000007208DF801003D4A3E
:104E00001268517D3B4A526810786B460222FFF7C8
:104E1000E8FC10B14FF0FF30E6E70021354801759E
:104E20000020E1E7012000F085FB012C03D10220E6
:104E30008DF8000033E0022C03D103208DF8000030
:104E40002DE0052C03DC04208DF8000027E00A2C5F
:104E500003DC05208DF8000021E0142C03DC062083
:104E60008DF800001BE0282C03DC07208DF80000E3
:104E700015E0502C03DC08208DF800000FE0A02C7A
:104E800003DC09208DF8000009E0B4F5A07F03DC05
:104E90000A208DF8000002E00B208DF80000154A72
:104EA0001268517A134A526810786B460122FFF754
:104EB00098FC10B14FF0FF3096E720208DF80000ED
:104EC0000C4A1268517D0B4A526810786B460122D9
:104ED000FFF787FC10B14FF0FF3085E70821054848
:104EE000817200210173012101750020FFF776FD19
:104EF000002079E73C000020F8B504460D46164630
:104F000016B94FF0FF30F8BD1A48807A10B94FF04B
:104F1000FF30F8E720128DF80000E0B28DF80100B4
:104F20009DF801002844134949684989884202DDF7
:104F30004FF0FF30E7E70F4A1268D17E0D4A526802
:104F400010786B460222FFF74CFC10B14FF0FF3097
:104F5000D9E7EAB2074B1B68197E064B5B681878E5
:104F60003346FFF72BFC10B14FF0FF30CBE70020AA
:104F7000C9E700003C00002008B57048807A10B9ED
:104F80004FF0FF3008BD002000906C4A1268517C41
:104F90006A4A526810786B460122FFF722FC10B172
:104FA0004FF0FF30EEE7654A12685179634A526864
:104FB00010786B460122FFF714FC10B14FF0FF3060
:104FC000E0E75E4A126811795C4A526810786B46D5
:104FD0000122FFF706FC10B14FF0FF30D2E757482F
:104FE00090F82400002853D00C200090534A1268F7
:104FF0001179524A526810786B460122FFF7F1FB93
:1050000010B14FF0FF30BDE73220FEF7B1FAC020FB
:1050100000904A48807A00F0010020B19DF800001D
:1050200040F020000090454A12681179434A5268C6
:1050300010786B460122FFF7D4FB10B14FF0FF3020
:10504000A0E73E48407C10B10220009001E0002023
:1050500000903A4A1268517C384A526810786B4680
:105060000122FFF7BEFB10B14FF0FF308AE70020AE
:105070000090324A12685179304A526810786B4673
:105080000122FFF7AEFB002855D04FF0FF3079E743
:1050900004200090294A12681179284A5268107831
:1050A0006B460122FFF79DFB10B14FF0FF3069E71F
:1050B0002248807C20B92148807A00F0010010B994
:1050C0004020009001E0602000901C4A1268117995
:1050D0001A4A526810786B460122FFF782FB10B122
:1050E0004FF0FF304EE73220FEF742FA1348407C83
:1050F00010B10120009001E0002000900F4A1268DA
:10510000517C0E4A526810786B460122FFF769FB0A
:1051100010B14FF0FF3035E7084A12685179074A5D
:1051200052681078054B10330122FFF75AFB10B17B
:105130004FF0FF3026E7002024E700003C0000206D
:105140002DE9F04186B007468846274890F82400AC
:1051500020B1002000F062F9012400E0002403A83F
:10516000FFF7CCFC05A8FFF771FC01A8FFF710FDC5
:1051700002A8FFF735FD1C48867A04A8FFF7B6FCA5
:10518000002241463846FFF739F80725FF20164927
:105190000872FF2114484172C1724FF6FF71C1813C
:1051A000FF218172017401210173BDF80C0000F030
:1051B0007DF99DF8140000F019F8BDF8040000F026
:1051C000EFF9BDF8080000F02DFA304600F084FA3F
:1051D0009DF81000FFF702FC14B1012000F01EF949
:1051E000284606B0BDE8F0813C00002038B50446F2
:1051F0001E48807A10B94FF0FF3038BD022C06D01F
:10520000042C07D0082C08D0102C0CD108E000206A
:1052100000900BE00820009008E01020009005E0CE
:105220001820009002E04FF0FF30E6E700BF0F4883
:10523000407A9DF80010B0EBE10F01D10020DCE7CF
:105240000A4A1268D179094A526810786B460122DD
:10525000FFF7C7FA10B14FF0FF30CEE79DF800001E
:10526000C110024841720020C7E700003C00002046
:1052700038B504465048807CA04201D1002038BD9A
:10528000002C46D04C4A126811794B4A526810786B
:105290006B460122FFF792FA10B14FF0FF30EEE7B4
:1052A0009DF8000020F020000090434A1268117918
:1052B000414A526810786B460122FFF792FA10B10A
:1052C0004FF0FF30DBE70320FEF752F90220009099
:1052D000394890F8220020B19DF8000040F080008D
:1052E0000090354890F8230020B19DF8000040F070
:1052F00030000090304A1268D17D2F4A52681078F1
:105300006B460122FFF76DFA002851D04FF0FF30B5
:10531000B5E7294A12681179274A526810786B4616
:105320000122FFF74BFA10B14FF0FF30A7E72248F8
:10533000807A00F0010028B19DF8000040F02000C4
:10534000009004E09DF8000020F0200000901A4A30
:1053500012681179184A526810786B460122FFF7DB
:1053600040FA10B14FF0FF3089E70320FEF700F953
:10537000114890F8220010B18020009001E0002038
:1053800000900D4890F8230020B19DF8000040F0F7
:1053900030000090084A1268D17D074A52681078A0
:1053A0006B460122FFF71DFA10B14FF0FF3066E7A0
:1053B00001488474002062E73C00002038B50446B0
:1053C0002CB11548C089A04201DB642C02DD4FF0EE
:1053D000FF3038BD1048C08990FBF4F0401EC0B2C9
:1053E00000900D4A126892F824100B4A5268107807
:1053F0006B460122FFF7F5F910B14FF0FF30E8E7F7
:105400000548C1899DF80000401C91FBF0F081B275
:10541000014801850020DCE73C00002038B5044647
:10542000214890F82400A04201D1002038BD24B3C7
:105430001D4890F8250010B94FF0FF30F6E7002026
:1054400000F0F8FA0020FFF713FF1749C88C00F0AE
:10545000E9F8002000901449496808786B46012259
:105460002321FFF7BEF901210F4880F82410012005
:1054700000F0E0FAFFF780FD13E0002000F0DAFA18
:105480000948007C00900849496808786B46012269
:105490002321FFF7A6F90021034880F82410FFF725
:1054A0006BFD0020C2E700003C00002038B5044638
:1054B0001F48807A10B94FF0FF3038BDFA2C09D060
:1054C000B4F5FA7F09D0B4F57A7F09D0B4F5FA6F54
:1054D0000CD108E0002000900BE00820009008E0CC
:1054E0001020009005E01820009002E04FF0FF30FF
:1054F000E3E700BF0E48007A9DF80010B0EBE10F23
:1055000001D10020D9E70A4A12689179084A526805
:1055100010786B460122FFF764F910B14FF0FF30AD
:10552000CBE79DF80000C010014908720020C4E7D5
:105530003C00002038B50446184890F82300A042EB
:1055400001D1002038BD14B13020009001E00020CE
:1055500000901248807C20B19DF8000040F00200CD
:1055600000900E4890F8220020B19DF8000040F015
:1055700080000090094A1268D17D084A526810786C
:105580006B460122FFF72DF910B14FF0FF30D9E73C
:10559000024880F823400020D4E700003C000020AF
:1055A00038B504461E48807A10B94FF0FF3038BD38
:1055B000BC2C02DB0120009015E0622C02DB0220F3
:1055C000009010E02A2C02DB032000900BE0142C4A
:1055D00002DB0420009006E00A2C02DB052000908C
:1055E00001E0062000900E48C07A9DF80010884225
:1055F00001D10020DBE70A4A12689178084A526814
:1056000010786B460122FFF7ECF810B14FF0FF3035
:10561000CDE79DF800100248C1720020C7E70000E6
:105620003C00002038B504462A48807A10B94FF073
:10563000FF3038BD274890F8240010B14FF0FF30FC
:10564000F7E72448007D50B134B1282C04DCE0B2E7
:10565000FFF7C4FB0020ECE70020FFF7BFFB042CA2
:1056600001DA042404E0B4F57A7F01DD4FF47A74A2
:105670004FF47A7090FBF4F0401EC0B20090154ACF
:1056800012685178134A526810786B460122FFF76E
:10569000A8F810B14FF0FF30CBE79DF80000401C98
:1056A0004FF47A7191FBF0F081B20A48C181014652
:1056B000098D642902DA0146098D00E0642108465B
:1056C000FFF77CFE0349C9894810FFF769FF0020F6
:1056D000AFE700003C0000201CB5044604F0700059
:1056E00010B10120019005E014B10020019001E00B
:1056F00040200190514A1268517D504A52681078FA
:1057000001AB0122FFF76DF820B100214B488172F7
:10571000481E1CBD9DF8040020F04001474801735D
:105720000020019004F0400020B99DF8040040F0F2
:105730000400019004F0200020B99DF8040040F01E
:105740000200019004F0100020B99DF8040040F020
:105750000100019004F0080020B99DF8040040F019
:1057600038000190354A1268917D344A52681078A9
:1057700001AB0122FFF735F820B100212F488172DB
:10578000481EC6E724B1082C02D00020FFF7D2FE45
:105790002A4A12681179294A526810786B46012208
:1057A000FFF70CF810B14FF0FF30B2E704F0010042
:1057B00038B1112001909DF8000040F020000090C9
:1057C00006E0102001909DF8000020F020000090DD
:1057D0001A4890F8240028B19DF8000040F080009D
:1057E000009004E09DF8000020F080000090134A33
:1057F000126892F82610114A5268107801AB012203
:10580000FEF7EFFF10B14FF0FF3082E70B4A12684E
:1058100011790A4A526810786B460122FEF7E1FFBF
:1058200010B14FF0FF3074E7044884720021017515
:105830003220FDF79DFE00206BE700003C000020B9
:10584000F8B504460D46164616B94FF0FF30F8BDC0
:105850001A48807A10B94FF0FF30F8E720128DF81F
:105860000000E0B28DF801009DF8010028441349C2
:1058700049684989884202DD4FF0FF30E7E70F4A67
:105880001268D17E0D4A526810786B460222FEF7EC
:10589000A8FF10B14FF0FF30D9E7EAB2074B1B6801
:1058A000197E064B5B6818783346FEF79AFF10B1F5
:1058B0004FF0FF30CBE70020C9E700003C0000209C
:1058C0002DE9FC4104460D46CDE90045019800F064
:1058D000004080B120462946FAF71EFF8046FAF7BD
:1058E000CFFE07464FF07E51FAF7CCFC0646FAF79A
:1058F0004BFFBDE8FC8120462946FAF70DFF07461D
:10590000FAF7BEFE0646FAF73FFFF2E72DE9FC5F25
:1059100006460F4614461D460022134620462946D9
:10592000FAF746FF03D100200146BDE8FC9F22465E
:105930002B4630463946FAF734FE8246FFF7C0FF61
:10594000CDE9000122462B46DDE90001FAF7B7FD5B
:10595000824632463B46FAF7AFFD80468946002232
:10596000134630463946FAF723FF02D24FF0010AB8
:1059700001E04FF0000A0022134620462946FAF7BC
:1059800017FF01D2012000E00020824507D0224607
:105990002B4640464946FAF78CFD804689464046EC
:1059A0004946C2E770B588B002A905A8FFF7C8FB51
:1059B0000446072C3CD101A8FFF7C2F80598FAF776
:1059C0005FFE06460199FAF763FC0546FAF777FE93
:1059D00005900698FAF754FE06460199FAF758FC26
:1059E0000546FAF76CFE06900798FAF749FE064658
:1059F0000199FAF74DFC0546FAF761FE079005A8F4
:105A0000FEF744F86846FFF747F8BDF80010029823
:105A100048430290BDF80010039848430390BDF836
:105A2000001004984843049002A8FDF75FFF00BFF0
:105A300008B070BD38B50446214890F82400C0B1C4
:105A400014B10220009001E0002000901C4A12686E
:105A5000517C1B4A526810786B460122FEF7C1FE4A
:105A600010B14FF0FF3038BD9DF80010144841745C
:105A700023E01348807A10B94FF0FF30F3E724B1E8
:105A80000F48407C08B10020EDE714B101200090E0
:105A900001E0002000900A4A1268517C084A5268CE
:105AA00010786B460122FEF79CFE10B14FF0FF30DC
:105AB000D9E79DF80010024841740020D3E70000A8
:105AC0003C00002038B50120FFF7D2FB0C240EE08B
:105AD0006B46012200212046FEF770FE054625B9DF
