:020000040000FA
:0600000002014502016F40
:03000B0002017D72
:0300130002017374
:03001B0002017E61
:0300230002017F58
:03002B000201804F
:0300330002018146
:03003B000201823D
:0300430002018334
:03004B000201842B
:0300530002018522
:0300630002018611
:03006B0002018708
:03007300020188FF
:03007B00020189F6
:0300830002018AED
:03008B0002018BE4
:0300930002018CDB
:10010000C0087401C0E0C082C08375080A75DF11A1
:1001100022C0087401C0E0C082C08375081B75DF6F
:100120001122C0087401C0E0C082C08375082C751C
:10013000DF2222C0087401C0E0C082C08375083D80
:0401400075DF332212
:1001450078FFE4F6D8FD9000007F007E01E4F0A37F
:10015500DFFCDEFA75810812010A020177EF9001D2
:100165006B93900100730A1B2C3D5388FD32538815
:10017500F73202017AD2AF223232323232323232A1
:080185003232323232323232E2
:00000001FF
