:020000040000FA
:06000000021EC0023443A1
:03000B0002344775
:0300130002349024
:03001B0002349418
:030023000234950F
:03002B000234E0BC
:0300330002354E45
:03003B0002354F3C
:030043000235B9CA
:03004B000235BAC1
:030053000235BBB8
:030063000235BCA7
:03006B000235BD9E
:030073000236054D
:03007B0002369BAF
:0300830002369CA6
:03008B00023774C5
:030093000237E44D
:03009B000237E544
:0300B3000237E62B
:10010000C00D7401C0E0C082C083750D0A75DF00A8
:1001100022C00D7401C0E0C082C083750D1B75DF65
:100120001122C00D7401C0E0C082C083750D2C7512
:10013000DF2222C00D7401C0E0C082C083750D3D76
:1001400075DF332290800421119083A021119084C7
:10015000EA21119087EB21119089372111908CB3FE
:100160002111908019211190835321119087322100
:1001700011908DF021119095B42122909FED2122B4
:1001800090AA27212290816F2122908DD221229046
:10019000AAC721229091FF212290AB31212290AC5D
:1001A00001212290AE9B212290AFF1212290B15AE1
:1001B000212290B2BC212290B52B212290B781211F
:1001C0002290B922212290BA46212290BB7221228C
:1001D00090900F212290BCC9212290ADAA2122909B
:1001E000810E212290BD8F212290C0CB212290C36D
:1001F0006A212290C454212290828221339080006F
:1002000021339084DE21339085C0213300420DA834
:10021000001F420E1A0000410D7800410D79004286
:100220000F150000410F2B00410F2A00410F29003C
:10023000410F1B0065F100000000000000000000FD
:10024000000000000000000000101010101010103E
:10025000101000001010000000006C6C242400003E
:1002600000000100000000000024242424FE48486F
:100270004848FC909090900000103C549290503868
:1002800014121292547810000000225C94A84810B6
:1002900010242A5254880000000030484850206E34
:1002A00054948C888A7400000000303010100000D4
:1002B00000000000000000000004081010202020B2
:1002C0002020201010080400008040202010101072
:1002D0001010102020408000000000001054381042
:1002E000385410000000000000000010101010FE34
:1002F00010101010000000000000000000000000BE
:10030000000000001010200000000000000000FEAF
:1003100000000000000000000000000000000000DD
:100320000000000010100000000004040808101075
:100330002020404080800000000038448282828279
:100340008282828244380000000010701010101069
:1003500010101010107C0000000038448282040845
:100360001020408284FC00000000384482020438DF
:1003700004020282443800000000040C14142424F7
:100380004444FE04040E00000000FC808080B8C4D9
:10039000820202828478000000003C428280B8C45D
:1003A000828282824438000000007E428204040877
:1003B00008081010101000000000384482824438F1
:1003C0004482828244380000000038448282828263
:1003D000463A02824438000000000000101000007D
:1003E00000001010000000000000000010100000CD
:1003F00000000010102000000000000006186080BF
:100400006018060000000000000000000000FE0070
:1004100000FE00000000000000000000C0300C02E0
:100420000C30C00000000000003844828202040842
:10043000101010001010000000003844829AAAAA80
:10044000AAAAAA9680423C00000010101028282872
:1004500044447C4444EE00000000FC424242427CA2
:100460004242424242FC000000003C4482808080C4
:1004700080808282443800000000F84442424242B8
:100480004242424244F800000000FC444240447CA6
:100490004440404244FC00000000FC444240447C94
:1004A0004440404040F000000000344C8280808096
:1004B0008E8484844C3400000000EE444444447C28
:1004C0004444444444EE000000007C10101010101E
:1004D00010101010107C000000003E0808080808EA
:1004E00008080888887000000000EE444848506002
:1004F0005048484444EE00000000E0404040404086
:100500004040404244FC00000000C6446C6C6C5407
:100510005454444444EE00000000CE4464646454E7
:10052000544C4C4C44E400000000384482828282E7
:1005300082828282443800000000F84442424244F1
:100540007840404040E000000000384482828282CF
:10055000828282BA443C02000000F048444444488D
:100560007048444444E6000000003C44828040302F
:100570000C0202824478000000007C54921010109B
:1005800010101010103800000000EE4444444444A1
:1005900044444444443800000000EE4444444428A9
:1005A00028282810101000000000EE445454545421
:1005B00054542828282800000000EE44442828101D
:1005C0001028284444EE00000000EE444428282867
:1005D000101010101038000000007E44840808102D
:1005E0002020408284FC0000001C1010101010100D
:1005F0001010101010101C000000EE445454FE5453
:1006000054542828282800000070101010101010D2
:10061000101010101010700000304884000000000E
:1006200000000000000000000000000000000000CA
:10063000000000000000FE0000402000000000005C
:1006400000000000000000000000000000007884AE
:10065000047C84848C7600000000C04040405864D4
:10066000424242426458000000000000000038444A
:10067000808080804438000000000C040404344C66
:10068000848484844C3600000000000000007884DC
:1006900084FC808084780000000018242020F8204A
:1006A00020202020207000000000000000003A44BC
:1006B0004478807C82827C000000C04040405864C6
:1006C0004444444444EE0000000010100000301088
:1006D0001010101010380000000010100000301032
:1006E00010101010109060000000C04040405C48A6
:1006F0005060504844EE00000000301010101011FF
:100700001010101010390000000000000000ACD2E2
:100710009292929292D6000000000000000058E4ED
:100720004444444444EE000000000000000038440B
:100730008282828244380000000000000000D864F9
:10074000424242645840E000000000000000364C85
:100750008484844C34040E000000000000006C30DF
:100760002020202020700000000000000000788879
:100770008460188444780000000000202020F820C5
:100780002020202024180000000000000000C642A5
:1007900042424242463A0000000000000000EE449F
:1007A0004428282810100000000000000000EE443B
:1007B0004454542828280000000000000000EE44A3
:1007C0002810102844EE0000000000000000EE4455
:1007D0004428281010A0C0000000000000007E4443
:1007E0008810204284FC0000000C101010101060D3
:1007F0001010101010100C0000101010101010101D
:10080000101010101010100000C020202020201800
:10081000202020202020C0000000000000000072E6
:100820008C0000000000000000678105F700000058
:1008300000001FE000003FF000003FF000001FE05C
:10084000000180060003C00F0003C00F0003C00FAB
:100850000003C00F0003C00F0003C00F0003C00F50
:100860000003C00F000300030000000000000000B0
:1008700000000000000300030003C00F0003C00FCE
:100880000003C00F0003C00F0003C00F0003C00F20
:100890000003C00F0003C00F0001800600001FE02E
:1008A00000003FF000003FF000001FE000000000EB
:1008B00000000000000000800000018000000380B4
:1008C000000007800000078000000780000007800C
:1008D00000000780000007800000078000000780FC
:1008E0000000078000000180000000000000000000
:1008F0000000000000000180000007800000078069
:1009000000000780000007800000078000000780CB
:1009100000000780000007800000078000000380BF
:1009200000000180000000800000000000000000C6
:1009300000001FE000003FF00000FFF00001FFE0BA
:10094000000000060000000F0000000F0000000F74
:100950000000000F0000000F0000000F0000000F5B
:100960000000000F00001FE300007FF800007FF888
:1009700000001FE0000300000003C0000003C000EF
:100980000003C0000003C0000003C0000003C0005B
:100990000003C0000003C0000001800000001FF041
:1009A00000003FF800003FFC00001FFE00000000B8
:1009B0000003FF800001FFC00000FFC000007F8037
:1009C000000000180000003C0000003C0000003C5B
:1009D0000000003C0000003C0000003C0000003C27
:1009E0000000003C00007F8C0001FFE00001FFF0F0
:1009F00000007F800000000C0000003C0000003C74
:100A00000000003C0000003C0000003C0000003CF6
:100A10000000003C0000003C0000001800007F8047
:100A20000000FFC00001FFC00003FF8000000000C5
:100A30000000000000020001000300030003800723
:100A40000003C00F0003C00F0003C00F0003C00F5E
:100A50000003C00F0003C00F0003C00F0003C00F4E
:100A60000003C00F00031FE300007FF800007FFCBD
:100A700000001FE0000000030000000F0000000F56
:100A80000000000F0000000F0000000F0000000F2A
:100A90000000000F0000000F0000000F0000000722
:100AA0000000000300000001000000000000000042
:100AB00000001FFC00003FF800003FF000001FE0B6
:100AC000000180000003C0000003C0000003C0005C
:100AD0000003C0000003C0000003C0000003C0000A
:100AE0000003C00000031FE000007FF800007FF853
:100AF00000001FE0000000030000000F0000000FD6
:100B00000000000F0000000F0000000F0000000FA9
:100B10000000000F0000000F0000000600003FE092
:100B200000007FF00000FFF00001FFE00000000087
:100B300000001FFC00003FF800003FF000001FE035
:100B4000000180000003C0000003C0000003C000DB
:100B50000003C0000003C0000003C0000003C00089
:100B60000003C00000031FE000007FF800007FFCCE
:100B700000001FE0000300030003C00F0003C00FCC
:100B80000003C00F0003C00F0003C00F0003C00F1D
:100B90000003C00F0003C00F0001800600001FE02B
:100BA00000003FF000003FF000001FE000000000E8
:100BB0000007FFE00003FFC00001FF880000FF18EE
:100BC0000000003800000078000000780000007885
:100BD0000000007800000078000000780000007835
:100BE0000000007800000018000000000000000075
:100BF00000000000000000180000007800000078ED
:100C00000000007800000078000000780000007804
:100C10000000007800000078000000780000003834
:100C200000000018000000080000000000000000A4
:100C300000001FE000003FF000003FF000001FE058
:100C4000000180060003C00F0003C00F0003C00FA7
:100C50000003C00F0003C00F0003C00F0003C00F4C
:100C60000003C00F00031FE300007FF800007FFCBB
:100C700000001FE0000300030003C00F0003C00FCB
:100C80000003C00F0003C00F0003C00F0003C00F1C
:100C90000003C00F0003C00F0001800600001FE02A
:100CA00000003FF000003FF000001FE000000000E7
:100CB00000001FE000003FF000003FF000001FE0D8
:100CC000000180060003C00F0003C00F0003C00F27
:100CD0000003C00F0003C00F0003C00F0003C00FCC
:100CE0000003C00F00031FE300007FF800007FFC3B
:100CF00000001FE0000000030000000F0000000FD4
:100D00000000000F0000000F0000000F0000000FA7
:100D10000000000F0000000F0000000600001FE0B0
:100D200000003FF000007FF00000FFE00000000046
:100D300000000000000000000000000000000000B3
:100D400000000000000000000000000000000000A3
:100D50000000000000000000000000000000000093
:100D60000000000000000000000000000000000083
:100D70000000000000000000000000000000000073
:100D80000000780000007800000078000000780083
:100D90000000780000007800000000000000000063
:100DA0000000000000000000000000000000000043
:100DB0000000000000000000000000000000000033
:100DC000000000000000000000000000000007001C
:100DD00000000F8000000F8000000F80000007005F
:100DE0000000000000000000000000000000000003
:100DF00000000000000000000000070000000F805D
:100E000000000F8000000F800000070000000000BD
:100E100000000000000000000000000000000000D2
:100E200000000000000000000000000000000000C2
:100E30000000000000000000000000000007C006E5
:100E4000000FE0060000000C0030181800301818E1
:100E5000003018300030183000301860003008C002
:100E60000007C0C0000FE080000000000000000F7D
:100E7000E0000607C000063018000C3018000C30E7
:100E8000180018301800303018003030180060009A
:100E90000000C00FE000C007C0000000000000001C
:100EA0000000000000000000000000000000000042
:100EB0000000000000000000000000000000000032
:100EC00000000000000700E0000887FC00088E0317
:100ED00000089801800718008000300000003000F2
:100EE0000000700000006000000060000000600072
:100EF0000000600000006000000070000000300092
:100F000000003000000038000000180100000C0351
:100F1000000007FC000001F00000000000000000DD
:100F200000000000000000000000000000000000C1
:100F300000000000000000000000000000000000B1
:100F400000000000000000000000000000000000A1
:100F50000000000000000000000000000000000091
:100F6000000000000000000000003FF000007FF0E3
:100F700000007FE00000FFC0000000000000000053
:100F80000000000000000000000000000000000061
:100F90000000000000000000000000000000000051
:100FA00000000000000000000000000000004305F9
:100FB000F40000004305F1000000420F5C00004215
:100FC0000F5EFFFF420F34000F420F2C000F420F45
:100FD00032000B420F3A000B420F2E0003420F3833
:100FE0000003420F360005420F300009420F6A002D
:100FF00000420F4E0000420F4C0080420F52002A68
:10100000420F500080410F6D01420F580000420F07
:10101000560080420F54002A420F5A0080410F426E
:1010200000440F6000000000602C0E60000001060C
:101030000126014A015D018801B801EE020B024B55
:10104000029302BA0310037003DC0416049705260A
:101050000575062006E007B8420E5E00FA420E1C37
:10106000000060200E3E01010101010101010101AA
:101070000201010200000000010100000000010166
:1010800001010201010260200E1E010203010102A2
:10109000030103040503040505060506030105060F
:1010A00005040301010501010501450E8C53544F50
:1010B00050004B0E9174776F2074696765727300EE
:1010C00000021409E86480F8E933E8336011046031
:1010D000F0ED33EC337009E8FCE9FDEAFEEBFF22AA
:1010E0000460DED3EB9FEA9EE99DE8C2E78CF0C284
:1010F000F795F0400CE8CCF8E9CDF9EACEFAEBCF61
:10110000FB1213D485D0F05804700320D5B3E80443
:1011100070075002B2D502141392D5EC0460F7E4C4
:10112000CCC0E0C398F8603B94186008400DD0E054
:10113000FB0213EBE4FBFAC9FC8028E830E406E488
:10114000C9FBE4CAFCE830E305E4C9CACBFCE854B7
:10115000076010F8C3E913F9EA13FAEB13FBEC1379
:10116000FCD8F130F52FC3E49CFCEF9BFFEE9AFE18
:10117000ED99FDD0E0FBEF4E4D4C701222DB0302E7
:101180001410EC2CFCEF33FFEE33FEED33FDED30AD
:10119000E7EB0213EBEF2BFFEE3AFEED39FDD0E06B
:1011A000FB50130BBB0003021413ED13FDEE13FEF3
:1011B000EF13FFEC13FC0213EBEC4D6011E84970E8
:1011C00017ED33EC3304600DE4FCFFFEFD22E93340
:1011D000E8330470F80214091213D458046009E4C7
:1011E000CC2481500628500902141328400302140D
:1011F00010C0E0EB4A7044B98006D0E0FB0213FF58
:10120000EF4E701CBD8008EBFFEAFEE9FD80EBE9C4
:101210008DF0A4FEE5F00212A2E9CDF9EAFEEBFFA3
:10122000EF89F0A4FCE5F0CE89F0A42EFFE435F0C0
:10123000CD89F0A42DFEE435F08067EF4E7005BD3A
:1012400080D780C3EF8BF0A4ACF0EE8BF0A42CFC25
:10125000E435F0F8EF8AF0A42CE5F038FCE433CB69
:101260008DF0A42CFCE5F03BF8EE8AF0A42CFCE514
:10127000F038F8E433CF89F0A42CFCE5F038CF3413
:1012800000CE89F0A42FFFE5F03EFEE433C98DF0D7
:10129000A42EFEE5F039CD8AF0A42FFFE5F03EFE46
:1012A000E43DFD33D0E0FB50070BBB000F021413ED
:1012B000EC2CFCEF33FFEE33FEED33FD0213EB02BB
:1012C0001413EC5D046005E859047003021409125C
:1012D00013D4580460F6EC4860F2EC7004FDFEFF95
:1012E00022C860DB2481C85009C3986002500602FE
:1012F00014109850CAF582E9294B4A7005AB820256
:1013000013FF75F0007C1A7880C3EF9BEE9AED997D
:10131000400DC3EF9BFFEE9AFEED99FDE842F0DC35
:1013200023ACF0D0E0FFD0E0FED0E0FDAB8220E7C0
:10133000101BEB60BAEC2CFCEF33FFEE33FEED3309
:10134000FD0213EBE803F830E705C0F075F000EF9D
:101350002FFFEE33FEED33FD40B830E7C280AA75B3
:10136000F020800E75F010800575F0087D007E007D
:101370007F003392D530D503121825EC334010EF9F
:1013800033FFEE33FEED33FDEC33FCD5F0ED22E51B
:10139000F0247EA2D513CC92E7CDCEFF22EDD2E78A
:1013A000CD33EC3392D524814006E4FFFEFDFC22D0
:1013B000FCE4CFCECDCC24E0501174FF80EDC3CC43
:1013C00013CCCD13CDCE13CECF13CF0470F030D5C8
:1013D000DE021825E9D2E7C933E833F892D5EDD219
:1013E000E7CD33EC33FC5002B2D522EC30E7100FDE
:1013F000BF000C0EBE00080DBD00040BEB6014A274
:10140000D5EB13FCED92E7FD2274FFFCFDFEFF22FD
:10141000E480F8A2D574FF13FC7D80E480EFF9200E
:10142000E73624F950037907E4F42402FBE582153A
:101430008270021583DBF6E024FB501BE96014E4A4
:10144000F0E582158270021583E004F0B40A08E426
:10145000F0D9EE7401F00A22C2D522ED33EC3392BA
:10146000D5FA602AB4FF33EDC2E77BFF60067A1439
:101470007980E4227A14798920D5047A1479842237
:101480004E614E002B494E46002D494E4600E47AEF
:1014900008F0A3DAFC7B00740722C083C082ECC092
:1014A000E0EDC0E0EEC0E0EFC0E0EA75F010A4CAE5
:1014B000ABF075F04DA42BFBE435F0FCEA2410FAF8
:1014C000EB34C5FBEC34D9FCEDC2E7FF75F056A454
:1014D000F42411C5F0F434C58FF0A42AE5F03BE400
:1014E0003CF020E714121590D0E0FFD0E0FED0E0F1
:1014F000FDD0E0FC1212C28014F404121590D0E06A
:10150000FFD0E0FED0E0FDD0E0FC1211B9D082D0D7
:1015100083E0FAEDD2E7CD33EC332482FBE4C3CF92
:1015200033CFCE33CECD33CD33DBF37B0775F00A2B
:10153000846004F0A31B0AE5F0F0A38FF0740AA402
:10154000FFACF08EF0740AA42CFEACF050010C8DB0
:10155000F0740AA42CFDE435F0F0A3DBDE7407225E
:101560003F8000004120000042C80000447A000093
:10157000461C400047C35000497424004B18968015
:101580004CBEBC205A0E1BCA6753C21C749DC5AE0C
:10159000FB60065407601C23231215BEEB54386011
:1015A000091215AA1215B91211B9ECF8EDF9EEFAF3
:1015B000EFCB22EB1215B980F1543803241C90159F
:1015C00060FE93FC0EEE93FD0EEE930ECE93FF2283
:1015D000C2D530F707B2D563F0FF05F030E70CB2A3
:1015E000D5F4048463F0FF05F080018430D502F463
:1015F0000422BB010689828A83E0225002E722BBD3
:10160000FE02E32289828A83E49322BB010CE582F5
:1016100029F582E5833AF583E0225006E92582F830
:10162000E622BBFE06E92582F8E222E58229F58260
:10163000E5833AF583E49322BB010989828A83F822
:10164000E028F022500327F722BBFE05F8E328F339
:10165000228A838982F8E4932822BB010FF8E5826D
:1016600029F582E5833AF583E028F0225009C58206
:1016700029F8E58226F622BBFE09C58229F8E22573
:1016800082F222F8EA2583F583E9932822BB01063A
:1016900089828A83F0225002F722BBFE01F322F8EE
:1016A000BB010DE58229F582E5833AF583E8F02256
:1016B0005006E92582C8F622BBFE05E92582C8F25C
:1016C00022EF8DF0A4A8F0CF8CF0A428CE8DF0A44A
:1016D0002EFE22C2D5EC30E709B2D5E4C39DFDE46D
:1016E0009CFCEE30E715B2D5E4C39FFFE49EFE12EA
:1016F00018F4C3E49DFDE49CFC80031218F430D57B
:1017000007C3E49FFFE49EFE22C5F0F8A3E028F0A3
:10171000C5F0F8E582158270021583E038F022BB2F
:101720000110E58229F582E5833AF583E0F5F0A31F
:10173000E0225009E92582F886F008E622BBFE0A7D
:10174000E92582F8E2F5F008E222E5832AF583E94B
:1017500093F5F0A3E9932275F008758200EF2FFF4F
:10176000EE33FECD33CDCC33CCC58233C5829BED79
:101770009AEC99E58298400CF582EE9BFEED9AFD7D
:10178000EC99FC0FD5F0D6E4CEFBE4CDFAE4CCF92D
:10179000A88222B800C1B90059BA002DEC8BF084A0
:1017A000CFCECDFCE5F0CBF97818EF2FFFEE33FE6E
:1017B000ED33FDEC33FCEB33FB10D703994004EB26
:1017C00099FB0FD8E5E4F9FA227818EF2FFFEE33F2
:1017D000FEED33FDEC33FCC933C910D7059BE99A04
:1017E0004007EC9BFCE99AF90FD8E0E4C9FAE4CC95
:1017F000FB2275F010EF2FFFEE33FEED33FDCC33FF
:10180000CCC833C810D7079BEC9AE899400AED9BE7
:10181000FDEC9AFCE899F80FD5F0DAE4CDFBE4CCC6
:10182000FAE4C8F922C3E49FFFE49EFEE49DFDE4D0
:101830009CFC22EB9FF5F0EA9E42F0E99D42F0E825
:101840009C45F022E0FCA3E0FDA3E0FEA3E0FF2224
:10185000E0F8A3E0F9A3E0FAA3E0FB22ECF0A3EDAB
:10186000F0A3EEF0A3EFF022A8828583F0D083D01E
:101870008212187F12187F12187F12187FE473E407
:1018800093A3C583C5F0C583C8C582C8F0A3C5832B
:10189000C5F0C583C8C582C822A42582F582E5F0BB
:1018A0003583F58322E0FBA3E0FAA3E0F922F8E018
:1018B000FBA3A3E0F925F0F0E58215827002158301
:1018C000E0FA38F022EBF0A3EAF0A3E9F022D083AB
:1018D000D082F8E4937012740193700DA3A393F86F
:1018E000740193F5828883E4737402936860EFA3B4
:1018F000A3A380DFBC000BBE0029EF8DF084FFADF9
:10190000F022E4CCF875F008EF2FFFEE33FEEC3355
:10191000FCEE9DEC984005FCEE9DFE0FD5F0E9E451
:10192000CEFD22EDF8F5F0EE8420D21CFEADF07570
:10193000F008EF2FFFED33FD4007985006D5F0F289
:1019400022C398FD0FD5F0EA22E50824C6F582E40B
:10195000340EF583E0050822900EC3300703900E85
:10196000C6E475F0011218AE0215F22000E97F2ED0
:10197000D2008018EF540F2490D43440D4FF3004A8
:101980000BEF24BFB41A0050032461FFE509600285
:101990001509050CE50C7002050B30070E900EC3FF
:1019A000E475F0011218AEEF02168D022068740380
:1019B000D2078003E4C207F508900EC31218C5E4ED
:1019C000F509F50BF50CE50960077F2012198C80ED
:1019D000F5750AFFC201C200C202C203C205C206F7
:1019E000C208121958FF700D3007057F0012199DAB
:1019F000AF0CAE0B22B4255FC2D5C204121958FF3A
:101A000024D0B40A00501A75F00A780930D50508B8
:101A1000B6FF0106C6A426F620D5047002D20380C4
:101A2000D924CFB41A00EF5004C2E5D204021C8FAF
:101A3000D20180C6D20080C0D20280BCD2D580BA8A
:101A4000D20580B47F2012198C2002077401B509D9
:101A50000040F1121949FF12198C0219C6D208D29E
:101A6000068095121949FB121949FA121949F94AC7
:101A70004B7006798D7A1D7BFF20022EE509602AC6
:101A80007E008E8275830012160B60060EEE650ACC
:101A900070F0C2D5EBC0E0EAC0E0E9C0E0EE121C95
:101AA000F0D0E0F9D0E0FAD0E0FB1215F2FF60AA26
:101AB000EBC0E0EAC0E0E9C0E012198CD0E02401FC
:101AC000F9D0E03400FAD0E0FBE50A0460DCD50A86
:101AD000D98087D20280A2121CD260F7E50A700179
:101AE0000412141EA90A600DE50A600914F50A1211
:101AF0001D7AEF60F3EA30E702F404C3995079EA03
:101B0000F4250A0430E701E404F50A800D121CD222
:101B100060C1EA050A250A12141EEA900EF2F0309E
:101B2000E701E4250A04D50A0420050114121CF07B
:101B3000E4C0E0121D7A900EF2E0601320E7071473
:101B4000F0121974802204F0D0E014C0E07F00127B
:101B50001974E50A600712196B150A800B3005032A
:101B600012196BD0E00219C6D0E00480C4121CD256
:101B7000609EE50A0412141E900EF2EAF0E50A20B7
:101B800005026001042404121CF074FF04C0E0127A
:101B90001D7A121974E50A200502600312196BD030
:101BA000E0B50AE87F4512197E900EF2E07F2B30F7
:101BB000E7047F2DF404C0E012198CD0E075F00A20
:101BC00084C0F0121975D0E01219750219C6791087
:101BD00080027908C206C2088008D2D5790A80043A
:101BE000790AC2D5E50A047002F50AE4FAFDFEFF9F
:101BF000121949FC7B08200113121949FD7B103092
:101C0000000A121949FE121949FF7B20EC3382D5D4
:101C100092D55013C3E43000069FFFE49EFEE420FB
:101C200001039DFDE49CFCE4CBF8C201EC700CCFF9
:101C3000CECDCCE824F8F870F38017C3EF33FFEE75
:101C400033FEED33FDEC33FCEB33FB994002FB0F2D
:101C5000D8E9EB300105F8D0E0C448B201C0E00A91
:101C6000EC4D4E4F78207B0070C2EAB50A0040BCB4
:101C7000C0E0121CF2D0F0D0E0200104C4C0E0C4E7
:101C8000B201C0F0121975D0F0D5F0EB0219C612EE
:101C900018CE1A63531BCE581A344C1A30421BD23A
:101CA0004F1BDA441BDA491A49431BE0551B0D460A
:101CB0001B6D451AD7471DAD501A382D1A3C2E1AE8
:101CC0005F2B1A40231A5D201D962A19F848000040
:101CD0001A57E50AB4FF03750A06121949FC1219CE
:101CE00049FD121949FE121949FF900EEB02145BCF
:101CF000790AA2D5200314300509B910020404B9E9
:101D0000080104A2D52006025001042002689202B4
:101D1000B509005034C0E07F203003197F30A202A3
:101D200072067205500F121D49C202C206C205C2D8
:101D3000087F30800F300503E9C0E012198C3005B0
:101D400003D0E0F9D0E0B509CC3005177F30B910E9
:101D50000C12198C7F583004077F788003B9080370
:101D600012198C3002057F2D02198C7F202008F873
:101D70007F2B2006F322920280CF7F00B407005011
:101D80000B24EBF582E4340EF583E0FF22286E7518
:101D90006C6C2900D2011219493001F8C20178098E
:101DA00030D50108F60219F82D5043495812194947
:101DB0002403B405004001E4901DA89312197D741A
:101DC0003A12197DD203750904021BCE41542B52DD
:101DD00053540D0A00415445300D0A0041542B4321
:101DE000574D4F44453D310D0A0041542B43574A4E
:101DF00041503D22575757222C2277796E36323385
:101E00003939220D0A0041542B4349505354415251
:101E1000543D22544350222C226170692E6B373876
:101E2000302E636F6D222C38380D0A0041542B433D
:101E300049504D4F44453D310D0A0041542B434913
:101E40005053454E440D0A00474554206874747041
:101E50003A2F2F6170692E6B3738302E636F6D3AD1
:101E600038382F3F6170703D6C6966652E74696DFE
:101E700065266170706B65793D3130303033267383
:101E800069676E3D62353962633365663631393173
:101E90006562396637343764643465383363393999
:101EA0006632613426666F726D61743D6A736F6E5F
:101EB0000D0A0025642C0025640025643A003000DA
:101EC00078FFE4F6D8FD9000007F007E01E4F0A3E7
:101ED000DFFCDEFA75812112010A021F180221229D
:101EE000E493A3F8E493A34003F68001F208DFF43F
:101EF0008029E493A3F85407240CC8C333C4540FB7
:101F00004420C8834004F456800146F6DFE4800B89
:101F1000010204081020408090020DE47E019360CD
:101F2000BCA3FF543F30E509541FFEE493A36001B6
:101F30000ECF54C025E060A840B8E493A3FAE49320
:101F4000A3F8E493A3C8C582C8CAC583CAF0A3C8CE
:101F5000C582C8CAC583CADFE9DEE780BE54494DE1
:101F600045204F555421212100434C4F434B2049DC
:101F70004E4954005072657373207374617274001B
:101F800020746F2073657420636C6F636B0025642D
:101F900000300025643A004D656E7500436C6F6338
:101FA0006B202020202020200047616D6520666F77
:101FB00072206F6E650047616D6520666F722074D8
:101FC000776F0053504143452057415200505650BF
:101FD000005072657373204B657900900F6412187E
:101FE000447810EC4D4E4F70047CA57DA5C3EC13D6
:101FF000FCED13FDEE13FEEF13FF5010EC64CCFC70
:10200000ED644CFDEE644EFEEF64CEFFD8DF900F22
:102010006412185CEE547FFE22900F64EEF0EFA382
:10202000F0A374A5F0A3F02253504143450057415B
:1020300052005072657373204B6579005343524FC1
:1020400045004C4946450047414D45204F564552B5
:10205000004D792053434F52453A002564005032D9
:102060002053434F52453A00EFB40A07740D122033
:1020700073740A309811A899B8130CC2983098FD5F
:10208000A899C298B811F63099FDC299F599222500
:10209000362E32662A432025362E326600EF9020F7
:1020A000A693900100730A1B2C3DEE30E707C3E4B2
:1020B0009FFFE49EFE22000003E808980FFF900FA8
:1020C0001EE0FF900F4BE06F7049900F17E0FF90FC
:1020D0000F4AE06F703D900F14E0FF900F43E06FE8
:1020E000703174FFFFFE12016C900F5EE0FFA3E001
:1020F000900EC9CFF0A3EFF07BFF7A1F795DA3129A
:1021000018C57B107A847D32F1F97F887E13120125
:10211000443117221201DF900F5EE0FEA3E0FF02C0
:10212000016C122D45E4FDFFF1D61237E712016272
:102130003117900F5EE0FFA3E0900EC9CFF0A3EF40
:10214000F07BFF7A1F7969A31218C57B007AF87DAE
:1021500032D1831201F83117D18C900D78E06002F2
:10216000C146A3E064016002C1463117900F5EE0F2
:10217000FFA3E0900EC9CFF0A3EFF07BFF7A1F79A9
:1021800074A31218C57B107A847D50123C03900F03
:102190005EE0FFA3E0900EC9CFF0A3EFF07BFF7AE3
:1021A0001F7980A31218C57B107A847D64F1F990A1
:1021B0000D79E0640170A311BEE4900F42F01201AA
:1021C000FD7F011201DAEF64026002C13431179021
:1021D0000F1EE0900F4BF0900F17E0900F4AF09019
:1021E0000F14E0900F43F0900D79E064016002C19C
:1021F000347F011201DABF0105E4900D79F07F010F
:102200001201DABF0319900F42E0FF3395E0FEEFB1
:102210002402FFE43EFE7C007D031216D3EDF07F26
:10222000011201DABF0819900F42E0FF3395E0FE7A
:10223000EF2401FFE43EFE7C007D031216D3EDF097
:102240007F011201DABF0A0C900F42E07006900F76
:102250004BE004F07F011201DABF0A0D900F42E05B
:10226000B40106900F4AE004F07F011201DABF0AC0
:102270000D900F42E0B40206900F43E004F07F019E
:102280001201DABF090C900F42E07006900F4BE08C
:1022900014F07F011201DABF090D900F42E0B40182
:1022A00006900F4AE014F07F011201DABF090D9089
:1022B0000F42E0B40206900F43E014F0900F43E0A9
:1022C000C3648094BC4008E4F0900F4AE004F090AE
:1022D0000F4AE0C3648094BC4008E4F0900F4BE0E8
:1022E00004F0900F4BE0C3648094984002E4F090B7
:1022F0000F42E0600261E2900F43E0FFC36480940C
:102300008A40497BFF7A1F798E900EC61218C5EF5E
:102310003395E0900EC9F0A3EFF07B017A0F79447A
:102320001219AE900F5EE0FFA3E0900EC9CFF0A3AC
:10233000EFF07B017A0F7944A31218C5900F5CE08F
:10234000FAA3E0FB7D147C007F32804E123BD77BEA
:10235000FF7A1F798E900EC61218C5900F43E0FECB
:102360003395E0900EC9F0A3CEF07B017A0F79444B
:102370001219AE900F5EE0FFA3E0900EC9CFF0A35C
:10238000EFF07B017A0F7944A31218C5900F5CE03F
:10239000FAA3E0FB7D147C007F3A7E0012015D7B96
:1023A000FF7A1F7993900EC61218C5900F4BE0FE6E
:1023B0003395E0900EC9F0A3CEF07B017A0F7944FB
:1023C0001219AE900F5EE0FFA3E0900EC9CFF0A30C
:1023D000EFF07B017A0F7944A31218C5900DA81273
:1023E0003B78900F42E064016002A121900F43E02E
:1023F000FFC36480948A40497BFF7A1F798E900ED8
:10240000C61218C5EF3395E0900EC9F0A3EFF07B2C
:10241000017A0F79441219AE900F5EE0FFA3E090AD
:102420000EC9CFF0A3EFF07B017A0F7944A3121805
:10243000C5900F5CE0FAA3E0FB7D147C007F328046
:102440004E123BD77BFF7A1F798E900EC61218C5AD
:10245000900F43E0FE3395E0900EC9F0A3CEF07BE1
:10246000017A0F79441219AE900F5EE0FFA3E0905D
:102470000EC9CFF0A3EFF07B017A0F7944A31218B5
:10248000C5900F5CE0FAA3E0FB7D147C007F3A7EF0
:102490000012015D7BFF7A1F7993900EC61218C55A
:1024A000900F4BE0FE3395E0900EC9F0A3CEF07B89
:1024B000017A0F79441219AE900F5EE0FFA3E0900D
:1024C0000EC9CFF0A3EFF07B017A0F7944A3121865
:1024D000C5900F5CE0FAA3E0FB7D14123C037BFF88
:1024E0007A1F7993900EC61218C5900F4AE0FE33FA
:1024F00095E0900EC9F0A3CEF07B017A0F794412DB
:1025000019AE900F5EE0FFA3E0900EC9CFF0A3EFED
:10251000F07B017A0F7944A31218C5900DA8123BE5
:10252000C7900F42E06402600221E7900F43E0FF92
:10253000C36480948A40497BFF7A1F798E900EC6CF
:102540001218C5EF3395E0900EC9F0A3EFF07B01B0
:102550007A0F79441219AE900F5EE0FFA3E0900E5F
:10256000C9CFF0A3EFF07B017A0F7944A31218C50D
:10257000900DA8E0FAA3E0FB7D147C007F32806A16
:10258000900F5EE0FFA3E0900EC9CFF0A3EFF07BC9
:10259000FF7A1F7991A31218C5900DA8123BF37B07
:1025A000FF7A1F798E900EC61218C5900F43E0FE79
:1025B0003395E0900EC9F0A3CEF07B017A0F7944F9
:1025C0001219AE900F5EE0FFA3E0900EC9CFF0A30A
:1025D000EFF07B017A0F7944A31218C5900DA8E0A3
:1025E000FAA3E0FB7D147C007F3A7E0012015D7B44
:1025F000FF7A1F7993900EC61218C5900F4BE0FE1C
:102600003395E0900EC9F0A3CEF07B017A0F7944A8
:102610001219AE900F5EE0FFA3E0900EC9CFF0A3B9
:10262000EFF07B017A0F7944A31218C5900F5C126A
:102630003B7821E77F011201DAEF6401600221AFEC
:10264000900D79F021AF900D78E0B40115A3E0B4BE
:1026500001107D01E4F1F112280212284C122AAC7B
:1026600080E4900D78E0640260022158A3E06401E8
:10267000600221587D01F1F1122AFA122BCC122DA1
:102680001680DF7C007F0A7E0002015DE4FDFFF121
:10269000D6E4900F5CF0A3F0900F5E7442F0A37448
:1026A00008F0FF7E4212016C900D79E06002E1CCEF
:1026B00011BE7F011201DABF0206900D797401F09C
:1026C0007F011201DABF0106900D78E004F0900D51
:1026D00078E075F00384E5F0F0900F5EE0FFA3E092
:1026E000900EC9CFF0A3EFF07BFF7A1F7997A3126A
:1026F00018C57B007AF87D0A7C007F057E001201F8
:102700005D900F5EE0FFA3E0900EC9CFF0A3EFF065
:102710007BFF7A1F799CA31218C57B107A847D2DCC
:10272000D183900F5EE0FFA3E0900EC9CFF0A3EF3E
:10273000F07BFF7A1F79A9A31218C57B107A847DDC
:102740003DD183900F5EE0FFA3E0900EC9CFF0A3D0
:10275000EFF07BFF7A1F79B6A31218C57B107A843D
:102760007D4DD183900D78E0701A900EC9F0A3745E
:102770001FF07BFF7A1F799CA31218C57B107A8407
:102780007D2D8044900D78E0B4011B900EC9E4F0DB
:10279000A3741FF07BFF7A1F79A9A31218C57B10C1
:1027A0007A847D3D8022900D78E064026002C1A8A9
:1027B000900EC9F0A3741FF07BFF7A1F79B6A312A5
:1027C00018C57B107A847D4DD183C1A822AF02EF5A
:1027D000C4540FFF7D01EF700BED600443D28022E3
:1027E00053D27F228FCEED600443C8042253C8FB2E
:1027F00022FFF1D67F010202077C007F147E0002D7
:10280000015D1221171201801221141229FA1201FE
:1028100085900DAAE0FF900DADE0FD7B017A0D796A
:10282000B0900EB11218C57A0D79D9900EB4121865
:10283000C57A0D79DD900EB71218C57A0D79F19031
:102840000EBA1218C57A0D79AE0201941220BE900C
:102850000DADE0700221DD900DDBE0700221DD9016
:102860000DAAE0C364809483403D900E19E0B4014A
:1028700036900DD97432F0A3742DF0E4900E19F057
:102880007B017A0D79DD900EAF1218C57A0D79B003
:10289000900EB21218C57A0D79F1900EB51218C5C6
:1028A0007A0D79AE1201D0900DAAE0FF75F00A12F0
:1028B00015D0AEF0EE7016EF75F00A1215D0049038
:1028C0000DD8F0D36480948340037403F07B017AC5
:1028D0000D79B0900EAF1218C57A0D79AE12019E27
:1028E0007B017A0D79B01201A3900DD9E07B0160D4
:1028F00002217A7A0D79DD900DD8E0FD1201AD7BD1
:10290000017A0D79F1900DD8E0FD1201A8900DD853
:10291000E0FF7B017A0D79DD120199900DD8E0FF7F
:102920007B017A0D79F1900EB01218C57A0D79DD20
:102930001201C67B017A0D79AD900EAF1218C57ADF
:102940000D09900EB21218C57A0D79DD900EB512F0
:1029500018C57A0D79AA1201B231DE7B017A0D79A0
:10296000B0900EAF1218C57A0D79DD900EB2121824
:10297000C57A0D79AA1201B780587A0D79F17D01D7
:102980001201A87B017A0D79DC900EAF1218C57A7E
:102990000D79D91201D57B017A0D79F1900EAF1224
:1029A00018C57A0D79D91201CB31DE7B017A0D7908
:1029B000DB900EAF1218C57A0D79B0900EB21218D6
:1029C000C57A0D79D9900EB51218C57A0D79AA126B
:1029D00001BC11117F147E00120144014C227B01C5
:1029E0007A0D79F1900EAF1218C57A0D79AE900E6E
:1029F000B21218C57A0D190201C1E4FDFC900DAAAE
:102A0000F0A3F0A3F0A37403F0A37440F0A37471D7
:102A1000F0ED25E0FFEC33FE74B02FF582740D3E2F
:102A2000F583E4F074B12FF582740D3EF583E4F084
:102A30000DBD00010CED64144C70D6900DD87401DE
:102A4000F0E4A3F0A3F0A304F0A304F0900E191493
:102A5000F0E4FCFDED25E0FFEC33FE74DD2FF582A4
:102A6000740D3EF583E4F074DE2FF582740D3EF5AF
:102A700083E4F00DBD00010CED640A4C70D6E4FC5B
:102A8000FDED25E0FFEC33FE74F12FF582740D3E71
:102A9000F583E4F074F22FF582740D3EF583E4F0D3
:102AA0000DBD00010CED64144C70D6227B017A0D33
:102AB00079AB900EAF1218C57A0D09900EB21218AC
:102AC000C57A0D79AA12018AE4900D79F0900D78FB
:102AD000E064017024A3E070201220BE7F01120187
:102AE000DABF0206900D797401F07F011201DABF9E
:102AF00001DBE4900D78F080D422122117900F5E54
:102B0000E0FFA3E0900EC9CFF0A3EFF07BFF7A1FA8
:102B100079C3A31218C57B7D7AEF7D147C007F1EDC
:102B20007E0012015D900F5EE0FFA3E0900EC9CF22
:102B3000F0A3EFF07BFF7A1F79CDA31218C57B7D40
:102B40007AEF7D287C007F487E0012015D900F5E49
:102B5000E0FFA3E0900EC9CFF0A3EFF07BFF7A1F58
:102B600079D1A31218C57B107A847D461227F9907B
:102B70000EB2E4F0A37456F07B787A007D467C00B8
:102B80007F627E0012015312211491B6917D7193E0
:102B90008F99227D087F02EF14601514601714606E
:102BA0001914601B14601D2405701EE5805DFF2252
:102BB000E5905DFF22E5A05DFF22E5B05DFF22E527
:102BC000C05DFF22E5D85DFF227F00227193900F48
:102BD0002AE06F60051220BE80F291B61220BE90EE
:102BE0000D7BE07F0070027F01900D7AE07E007027
:102BF000027E01EE4F6002817C7B017A0D7992901A
:102C00000EAF1218C57A0D797E1201EEEF64014EF7
:102C10007006900D7BE014F07B017A0D797C900EAC
:102C2000AF1218C57A0D79941201F3EF64014E705A
:102C300006900D7AE014F07B017A0D797E900EAF4C
:102C40001218C57A0D7992900EB21218C57A0D79C4
:102C500094900EB51218C57A0D797C1201E47B01AF
:102C60007A0D7994900EAF1218C57A0D797E120103
:102C7000E9917D7F647E0012014461DC22900D7C2D
:102C8000E0FF3395E0FEA3E0FD3395E0FC12017612
:102C9000900D92E0FF3395E0FEA3E0FD3395E0FC5C
:102CA00012017B7B017A0D7994900EAF1218C57AD0
:102CB0000D797E02018FE4FDFC900D7A7403F0A380
:102CC000F0A37440F0A37471F0900D927440F0A3DF
:102CD000740FF0ED25E0FFEC33FE747E2FF5827467
:102CE0000D3EF583E4F0747F2FF582740D3EF5837D
:102CF000E4F074942FF582740D3EF583E4F074953E
:102D00002FF582740D3EF583E4F00DBD00010CED4E
:102D1000640A4C70BE22E4900D79F0900D78E06466
:102D2000017021A3E0701D7F011201DABF0206903D
:102D30000D797401F07F011201DABF01DEE4900D1C
:102D400078F080D722B163F1C8D193D1D012337F0C
:102D5000F180F1E512308D12310B12318D12320FEC
:102D6000D2AF227B027D04E4FFB1C17B027D08E487
:102D7000FFB1C17B027D027F05B1C17B017D407F38
:102D800003B1C17B017D107F01B1C17B017D207F3B
:102D900001B1C17B017D407F01B1C17B017D807F9D
:102DA00001B1C17B017D047F02B1C17B017D087F40
:102DB00002B1C17B027D01E4FFB1C17B027D02E46F
:102DC000FFEF14603614605314606E147002C15724
:102DD000147002C17524056002C192EB14601014D6
:102DE000601524026002C192EDF4529A529B22EDCA
:102DF000F4529AED429B22ED429A22EB1460101499
:102E0000601524026002C192EDF45291529222EDBB
:102E1000F45291ED429222ED429122EB14600E1495
:102E200060132402706CEDF452A152A222EDF45210
:102E3000A1ED42A222ED42A122EB14600E14601318
:102E40002402704EEDF452B152B222EDF452B1EDC3
:102E500042B222ED42B122EB14600E146013240240
:102E60007030EDF452C152C222EDF452C1ED42C2B3
:102E700022ED42C122EB14600E1460132402701282
:102E8000EDF452D952DA22EDF452D9ED42DA22EDC4
:102E900042D9227B017D20E4FFB1C17B017D40E46A
:102EA000FFB1C1E4900EAFF0A3F0A3F0A3F07B203C
:102EB000FDFF123AB5E4FD7F01F1CF7F01E58F54AC
:102EC000CF4410F58FEF60044395802253957F2205
:102ED0007B017D207F04B1C17B017D107F04B1C1E6
:102EE000E4FD7F01123A99900EB0121868000000BC
:102EF00000E4900EB4F0A37410F07F007E487DE8EB
:102F00007C01900EAC12185C53DCF843DC02E58EB9
:102F1000543F44C0F58EE5C4540FFF900EB4E0FE5C
:102F20004FFFA3E04FF5C4EE702AFFFEFDFC900EAC
:102F3000B0121850C3121833700453C4DF22E47F58
:102F400001FEFDFC900EB0121850C3121833702F02
:102F500043C42022900EB0121850900EAC121844A8
:102F6000121793E4FB7A01F9F81217938FC6900EAB
:102F7000B0121850900EAC1218441217938FC5223D
:102F80007B017D017F02B1C17B017D027F02B1C166
:102F9000900EB01218680001C200900EB47440F098
:102FA000E4A3F0A37410F07F007E487DE87C01125A
:102FB00039DCE4FD7F01EF7004C2AC8002D2ACEDDD
:102FC0007003C2BC22D2BC2243C1C043D93022EF1D
:102FD000600543A901800353A9FEED600443B901D4
:102FE0002253B9FE227D017F01123AE9E4FBFAFD8A
:102FF0007C837F01123009E4FD7F0112307B7F0169
:10300000EF7003C28C22D28C22900EACECF0A3EDB8
:10301000F0EF14601414601B1460202403702690D9
:103020000EACE0FEA3E0FF8040900EACE0FEA3E01B
:10303000FF8028900EACA3E0FF8015900EACA3E0BB
:10304000FFAD031146224389038F8AAF058F8C227F
:103050005389FC4389028F8A8F8C225389FC4389D0
:1030600001AD078D8AEEF58C225389FC8F8AEF78AB
:1030700005CEC313CE13D8F9F58C22EF7004C2A984
:103080008002D2A9ED7003C2B922D2B922E4FD7F39
:103090000111E97F007E8311B17F0111C2E4FD7F40
:1030A0000111D47F0175CE02EF7003C2CA22D2CAC9
:1030B0002275CE02AD078DCAEEF5CB85CACC85CB85
:1030C000CD2275CE02EF700453C97F22EFB4010305
:1030D00043C9802275CE02EF7004C2AD8002D2AD2A
:1030E000ED7003C2BD22D2BD2275CE02EFB4010540
:1030F00053C8FD8007EFB4020343C802ED700453C8
:10310000C9FE22EDB4100343C90122E4FD7F013161
:103110006B7F007E83312F7F013140E4FD7F0131E1
:10312000527F0175CE03EF7003C2CA22D2CA227544
:10313000CE03AD078DCAEEF5CB85CACC85CBCD22AB
:1031400075CE03EF700453C97F22EFB4010343C966
:10315000802275CE03EF700553A9BF800343A940B9
:10316000ED700453B9BF2243B9402275CE03EFB4CA
:10317000010553C8FD8007EFB4020343C802ED7098
:103180000453C9FE22EDB4100343C90122E4FD7FBC
:103190000131ED7FD57E9731B1E4FF31C27D017FF2
:1031A0000131D47F0175CE04EF7003C2CA22D2CAA6
:1031B0002275CE04AD078DCAEEF5CB85CACC85CB82
:1031C000CD2275CE04EF700453C97F22EFB4010302
:1031D00043C9802275CE04EF700553A97F80034355
:1031E000A980ED700453B97F2243B9802275CE04C3
:1031F000EFB4010553C8FD8007EFB4020343C802D2
:10320000ED700453C9FE22EDB4100343C901227DC1
:10321000E87C037F2071097B01E4FDFC7F065141BE
:10322000E4FF51D2E4FDFF51C4E4900EAFF0FB7D0A
:1032300020FF51E1E4FBFDFF51517D01E4FF022736
:10324000D6AA07A90371335172E9B401031227CD3D
:1032500022AE07EE7006AF05AD0341F3AF068FCE89
:10326000ED7004C2AD8002D2ADEB7003C2BD22D2BC
:10327000BD22AF02AD01EF54F0FC702DEDB401148E
:10328000EFC313540FFF7401A807088002C333D89B
:10329000FC42D322EFC313540FFF7401A807088028
:1032A00002C333D8FCF452D322ECC4540FF5CEEF52
:1032B0007E1030E1027E20EDB40104EE42C922EE20
:1032C000F452C922EF700AED600443D7802253D72D
:1032D0007F22EF700453D2FE22EFB4010343D201E8
:1032E00022EF700EE5D754C04D4BFF900EAFE04F6C
:1032F000F5D722EF600543A902800353A9FDED70C5
:103300000453B9FD2243B90222AB07EB540FFA7004
:1033100019ED1D70011CEB54F0FFE5D254CF4FF5B1
:10332000D2ECF5D5AF05EFF5D4228ACEECF5CBED96
:10333000F5CA22AB07EB54F0701E53D2FDECFF74BC
:10334000402BF582E43420F583EFF074412BF582B5
:10335000E43420F583EDF022ECFFEB540F2434F538
:1033600082E43420F583EFF0AF05EB2401FD7C000F
:10337000ED540F2434F582EC3420F583EFF0227BFA
:10338000017D407F02122DC1E4FF912A7F0191113E
:10339000E4FD7F0171E2E4FF71BDE4FF71F8E4FF39
:1033A00071CE7F0153DCF843DC03E58E54CF44201B
:1033B000F58EEF600443C4802253C47F2253DCF8AF
:1033C00043DC03E58E54CF4420F58E8FC52253DCB9
:1033D000F843DC03E58E54CF4420F58EEF25E0F56D
:1033E000C622EF600543AA04800353AAFBED6004E4
:1033F00043BA042253BAFB2253DCF843DC03E58EC4
:1034000054CF4420F58EEF600443C5402253C5BF1E
:103410002253DCF843DC03E58E54CF4420F58EEFD5
:10342000600443C4082253C4F72253DCF843DC038E
:10343000E58E54CF4420F58EEF600443C60122533D
:10344000C6FE225388FD32C0E0C0F0C083C082C0F7
:10345000D075D000C000C001C002C003C004C005C8
:10346000C006C0077F007E839188120202D007D079
:1034700006D005D004D003D002D001D000D0D0D0E7
:1034800082D083D0F0D0E032AD078D8AEEF58C2269
:103490005388F73232C0E0C0F0C083C082C0D0751C
:1034A000D000C000C001C002C003C004C005C006F7
:1034B000C00730980791DD900F2AEFF05398FD5325
:1034C00098FED007D006D005D004D003D002D0019A
:1034D000D000D0D0D082D083D0F0D0E032AF9922CB
:1034E000C0E0C0F0C083C082C0D075D000C000C0B2
:1034F00001C002C003C004C005C006C007900F2B66
:10350000E0B4011FD3900F16E09400900F15E06413
:10351000809480400974FFF5F01217098005900F20
:103520002BE4F07F80B1467F40B146D007D006D073
:1035300005D004D003D002D001D000D0D0D082D0AA
:1035400083D0F0D0E03275CE02EFF452C82232C000
:10355000E0C0F0C083C082C0D075D000C000C00100
:10356000C002C003C004C005C006C0077F80B18B85
:10357000D007D006D005D004D003D002D001D000AF
:10358000D0D0D082D083D0F0D0E032EF6480600E13
:10359000EF64506009EF64086004EFB48005EFF455
:1035A000529D22EF64026004EFB40108E59554FCDB
:1035B0004FF59522EFF452952232323232C0E0C0FC
:1035C000F0C083C082C0D075D000C000C001C0026E
:1035D000C003C004C005C006C0077F80B1FD7F40A6
:1035E000B1FDD007D006D005D004D003D002D00161
:1035F000D000D0D0D082D083D0F0D0E03275CE03CE
:10360000EFF452C822C0E0C0F0C083C082C0D075C1
:10361000D000C000C001C002C003C004C005C00685
:10362000C007900F1BE0C3648094E45002803E907A
:103630000F1BE4F0900F14E004F0E0C3648094BC2E
:103640004008E4F0900F17E004F0900F17E0C36417
:103650008094BC4008E4F0900F1EE004F0900F1E30
:10366000E0C3648094984008E4F0900F1DE004F0FB
:103670007F80D1937F40D193D007D006D005D0046E
:10368000D003D002D001D000D0D0D082D083D0F0EF
:10369000D0E03275CE04EFF452C82232C0E0C0F060
:1036A000C083C082C0D075D000C000C001C002C0BD
:1036B00003C004C005C006C0077F01F140BF012060
:1036C000F137900F29E0FE04F0741F2EF582E434E8
:1036D0000FF583EFF0900F29E0D394314002E4F02E
:1036E0007F01F1037F02F103D007D006D005D0049B
:1036F000D003D002D001D000D0D0D082D083D0F07F
:10370000D0E03253DCF843DC02EF6480600EEF64FB
:10371000506009EF64086004EFB48005EFF452C50F
:1037200022EF64026004EFB40108E5C454FC4FF5D5
:10373000C422EFF452C42253DCF843DC02AFC722A8
:1037400053DCF843DC02EF6480600EEF64506009E4
:10375000EF64086004EFB4800DE5C55F60047E018E
:10376000800FE4FE800BE5C45F60047E018002E40C
:10377000FEAF0622C0E0C0F0C083C082C0D075D0CA
:1037800000C000C001C002C003C004C005C006C024
:10379000077F40F1B0D007D006D005D004D003D0C9
:1037A00002D001D000D0D0D082D083D0F0D0E0328F
:1037B00053DCF843DC03EF6480600EEF6450600973
:1037C000EF64086004EFB48005EFF452C522EF64A3
:1037D000026004EFB40108E5C454FC4FF5C422EFC5
:1037E000F452C422323232E4FD7F01F1FEC2AEC295
:1037F000BE7F01EF700453AD7F2243AD80228FB5B1
:1038000022E4900EBDF0A3F0A37410F0A3E4F0A3A3
:10381000F0A3F0A3F0A3F07D01315143AD40E5AD3D
:103820007F0030E5027F01EF60F453ADDFE4900EDE
:10383000BCF043AD40E5AD7F0030E5027F01EF60B5
:10384000F453ADDF313B900EC1EEF0A3EFF0D39017
:103850000EBEE09F900EBDE09E500F900EC1E0FFA7
:10386000A3E0900EBDCFF0A3EFF0900EBFE0FEA35B
:10387000E0FFA3E0FCA3E0FDD39FEC9E5008900E78
:10388000BFECF0A3EDF0900EC3EC8DF01217099091
:103890000EBCE004F0E0C394064097900EBDE0FE3D
:1038A000A3E0FFC3900EC4E09FFF900EC3E09EFE16
:1038B000900EBFE0FCA3E0FDC3EF9DFFEE9CFEEF8A
:1038C0007802CEC313CE13D8F9FF900EC1EEF0A349
:1038D000EFF0227F08110111EA900F69EFF07F09E4
:1038E000110111EA900F68EFF022AD07AC06E4FB7E
:1038F000FAEB25E0FFEA33FE74B62FF58274203E22
:10390000F583C37401939DE4939C5020EB25E0FF65
:10391000EA33FE74B82FF58274203EF583C3740138
:10392000939DE4939C4005AF03AE02220BBB0001C4
:103930000AEB64034A70BAE4FEFF22AFAFEF75F002
:1039400010A4FFE5AEC4540F7C002FFFEC35F0FE51
:1039500022AC07ECC3941F502474017E00A8040815
:103960008005C333CE33CED8F9FFED700AEFF452A1
:10397000ABEEF452AC8006EF42ABEE42ACE5AD5498
:10398000E04CF5AD2253DCF843DC0343C5202212A2
:1039900083517F147E0012014431857D017F4453A1
:1039A000DCF843DC03EF25E04DF5C7221218A590A3
:1039B0000005EF12169F53DCF843DC0343C51022C9
:1039C00053DCF843DC038FC7221218A5900004EFE4
:1039D00012169F53DCF843DC03AFC722900EAC12E3
:1039E000185CE598542FFF900EB4E0FE4FFF900E48
:1039F000B6E04FF598EE702AFFFEFDFC900EB01277
:103A00001850C312183370045398DF22E47F01FE6C
:103A1000FDFC900EB0121850C3121833707A439800
:103A20002022E5C854CFFF900EB5E0FE4FF5C8EE5A
:103A3000702E900EB0121850900EAC12184412173F
:103A400093E4FB7A01F9F81217938F8D900EB01260
:103A50001850900EAC1218441217938F8BC28E22FE
:103A6000900EB5E06430703075CE02900EB0121832
:103A700050900EAC121844121793E4FB7A01F9F837
:103A80001217938FCB900EB0121850900EAC1218E4
:103A9000441217938FCAD2CA2253DCF843DC02EFD8
:103AA000600543AA02800353AAFDED600443BA02F5
:103AB0002253BAFD22E58F54CF4410F58FE59D5473
:103AC000FA4FFF900EB1E04FFFA3E04FF59DE59553
:103AD00054804D4BFF900EAFE04FFFA3E04FF595A4
:103AE00022900EEEE0FF8F9E22EF7005538EFE8037
:103AF00007EFB40103438E01EDB401045389FB22A7
:103B0000EDB40203438904227E001201447D02E4E5
:103B1000FFEF14601414601514601614601714601D
:103B20001824057017ED428022ED429022ED42A04C
:103B300022ED42B022ED42C022ED42D822900EEE9C
:103B4000EFF07D08E4FFEF1460151460171460199E
:103B500014601B14601D2405701DEDF4528022EDCD
:103B6000F4529022EDF452A022EDF452B022EDF482
:103B700052C022EDF452D822E0FAA3E0FB7D147C7F
:103B800000E4FFFE12015D7BFF7A1F7993900EC661
:103B90001218C5900F4AE0FE3395E0900EC9F0A3CD
:103BA000CEF07B017A0F79441219AE900F5EE0FFE0
:103BB000A3E0900EC9CFF0A3EFF07B017A0F794418
:103BC000A31218C5900F5CE0FAA3E0FB7D147C0003
:103BD0007F197E0002015D900F5EE0FFA3E0900E72
:103BE000C9CFF0A3EFF07BFF7A1F7991A31218C51C
:103BF000900F5CE0FAA3E0FB7D147C007F327E0036
:0B3C000002015D7C00E4FFFE02015D9C
:108000007FB47E00900F15EEF0A3EFF0900F2B746D
:1080100001F0900F2BE070FA22123B427D02E4FF48
:10802000123B467D04E4FF123B467D01E4FF123B18
:10803000117D02E4FF123B467F0F123B0811007FC7
:108040001131A111007FB131A17F0131897F2C3124
:10805000897F2D31897FB231A17F0131897F2C3118
:10806000897F2D31897FB331A17F0131897F2C3107
:10807000897F2D31897F0131897F2C31897F2D3195
:10808000897FB431A17F0731897FC031A17FA231BF
:10809000897F0231897F8431897FC131A17FC531D8
:1080A000897FC231A17F0A31857FC331A17F8A31A7
:1080B000897F2A31897FC431A17F8A31897FEE315E
:1080C000897FC531A17F0E31897F3631A17FC831CB
:1080D000897FE031A17F0F31897F1A31897F0F318C
:1080E000897F1831897F2F31897F2831897F20311D
:1080F000897F2231897F1F31897F1B31897F23311D
:10810000897F3731857F0731897F0231897F10313F
:10811000897FE131A17F0F31897F1B31897F0F3149
:10812000897F1731897F3331897F2C31897F2931CC
:10813000897F2E31897F3031897F3031897F393194
:10814000897F3F31857F0731897F0331897F1031F6
:10815000897F2A317D7F7F31897F2B317D7F9F31E0
:10816000897FF031A17F0131897FF631A1E4FF31B0
:10817000897F3A31A17F0531897F29802431A1E4AB
:10818000FF3189E4FF3189E4FF123B3D7D04E4FFC8
:10819000123B11123AE17D08E4FF023B1131B57F39
:1081A0002C123B3D7D04E4FF123B46123AE17D0870
:1081B000E4FF023B11900EE6EEF0A3EFF0A3ECF02B
:1081C000A3EDF0A3EAF0A3EBF07F2A31A1E4FF31A5
:1081D00089900EE6A3E024023184900EEAA3E02405
:1081E00002FF31897F2B31A1E4FF3189900EE8A392
:1081F000E024033184900EECA3E02403FF31897F57
:108200002C809EFE900ECDE0FCA3E0FD900EC6E01B
:108210002DFD900EC5E03CFC900EC9E0FAA3E0FBFA
:108220007153900ECBE0FEA3E0FF900EC4E02FFF51
:10823000900EC3E03EFE900ECDE0FCA3E0FDC390A7
:108240000EC6E09DFD900EC5E09CFC900EC9E0FAC4
:10825000A3E0FB7153900ECBE0FEA3E0FFC3900EB2
:10826000C4E09FFF900EC3E09EFE900ECDE0FCA305
:10827000E0FDC3900EC6E09DFD900EC5E09CFC9015
:108280000EC9E0FAA3E0FB7153900ECDE0FEA3E02F
:10829000FF900EC4E02FFF900EC3E03EFE900ECB89
:1082A000E0FCA3E0FD900EC6E02DFD900EC5E03C85
:1082B000FC900EC9E0FAA3E0FB7153900ECDE0FEF6
:1082C000A3E0FFC3900EC4E09FFF900EC3E09EFEAC
:1082D000900ECBE0FCA3E0FD900EC6E02DFD900ECD
:1082E000C5E03CFC900EC9E0FAA3E0FB7153900E90
:1082F000CDE0FEA3E0FF900EC4E02FFF900EC3E0A0
:108300003EFE900ECBE0FCA3E0FDC3900EC6E09DC8
:10831000FD900EC5E09CFC900EC9E0FAA3E0FB7155
:1083200053900ECDE0FEA3E0FFC3900EC4E09FFF8C
:10833000900EC3E09EFE900ECBE0FCA3E0FDC39048
:108340000EC6E09DFD900EC5E09CFC900EC9E0FAC3
:10835000A3E0FB900EE0EEF0A3EFF0900EE4EAF065
:10836000A3EBF0900EE2ECF0A3EDF0900EE0E0FA5B
:10837000A3E0FFAE02C006C0072401FBE43AFAA363
:10838000E0FEA3E02401FFE43E900EECF0A3EFF04A
:10839000D007D00631B5900EE4E0FEA3E0FFE1B6D1
:1083A000900EC3EEF0A3EFF0A3ECF0A3EDF0E49099
:1083B0000ECBF0A3F0A3EAF0A3EBF025E0FFEA3345
:1083C000FEC374039F900ED0F0E49E900ECFF09009
:1083D0000ECDE0FEA3E0FF900ECBE0FCA3E0FDC3DA
:1083E0009FEC9E4002819C900EC4E02DFF900EC336
:1083F000E03CFE900ECDE0FCA3E0FD900EC6E02D2B
:10840000FD900EC5E03C714A900ECBE0FEA3E0FF6C
:10841000C3900EC4E09FFF900EC3E09E5103900EE8
:10842000CFE0FCA3E0FDC3EC648094805023900E69
:10843000CBE0FEA3E07802C333CE33CED8F92DFFD4
:10844000EC3ECF2406CF3400900ECFF0A3EFF080A7
:108450003F900ECDE0FEA3E0FFC3900ECCE09FFF67
:10846000900ECBE09EFEEF7802C333CE33CED8F928
:10847000FF900ED0E02FFF900ECFE03ECF240ACF2A
:108480003400F0A3EFF0900ECD74FFF5F012170951
:10849000900ECBE475F00112170961CF900ECDE07C
:1084A000FEA3E0FF900ECBE0FCA3E0FD6F7002ECBA
:1084B0006E7036900EC4E02DFF900EC3E03CFE902F
:1084C0000ECDE0FCA3E0FD900EC6E02DFD900EC5A4
:1084D000E03C714A900ECBE0FEA3E0FF900EC4E0BA
:1084E0002FFF900EC3E03E510322900ECAEAF0A384
:1084F000EBF0900EC6EEF0A3EFF0A3ECF0A3EDF0DE
:10850000F193900EC6E0FEA3E0FFC3900ECBE09F78
:10851000FF900ECAE09E900ED0F0FAA3EFF0900EFE
:10852000C8E0FEA3E0FFC3900ECDE09FFF900ECC0D
:10853000E09E900ED2F0A3EFF0C3EA6480948040F6
:108540000A900ED8E4F0A304F0801D74FF900ED8BA
:10855000F0A3F0900ED0E0FEA3E0FFC3E49FFFE4A1
:108560009E900ED0F0A3EFF0900ED2E0FEA3E0FFBD
:10857000C3EE64809480400A900EDAE4F0A304F025
:10858000801574FF900EDAF0A3F0C3E49FFFE49E21
:10859000900ED2F0A3EFF0900ED0E0FCA3E0FD250A
:1085A000E0FEEC33900ED4F0A3CEF0900ED2E0FAC1
:1085B000A3E0FB25E0FEEA33900ED6F0A3CEF0D385
:1085C000ED9BEA6480F8EC6480985002C180900EC4
:1085D000D0E0FEA3E0FF900ED7E09FFF900ED6E024
:1085E0009E900EDCF0A3EFF0E4A3F0A3F0900ED089
:1085F000E0FEA3E0FFD3900EDFE09FEE6480F890F2
:108600000EDEE06480984002E131900EC6E0FEA3E9
:10861000E0FFA3E0FCA3E0FD900ECE714E900EDCD7
:10862000E0FEA3E0FFC3EE648094804025900ED46A
:10863000E0FCA3E0FDEF9DFFEE9C900EDCF0A3EFCD
:10864000F0900EDAE0FEA3E0FF900EC8EE8FF0127D
:108650001709900ED6E0FEA3E0FF900EDCEE8FF03F
:10866000121709900ED8E0FEA3E0FF900EC6EE8F21
:10867000F0121709900EDEE475F001121709A1ED52
:10868000900ED2E0FEA3E0FFC3900ED5E09FFF90D6
:108690000ED4E09E900EDCF0A3EFF0E4A3F0A3F084
:1086A000900ED2E0FEA3E0FFD3900EDFE09FEE64D9
:1086B00080F8900EDEE06480985076900EC6E0FE62
:1086C000A3E0FFA3E0FCA3E0FD900ECE714E900E60
:1086D000DCE0FEA3E0FFC3EE648094804025900EB2
:1086E000D6E0FCA3E0FDEF9DFFEE9C900EDCF0A336
:1086F000EFF0900ED8E0FEA3E0FF900EC6EE8FF0F4
:10870000121709900ED4E0FEA3E0FF900EDCEE8F6E
:10871000F0121709900EDAE0FEA3E0FF900EC8EE0B
:108720008FF0121709900EDEE475F001121709C1DF
:10873000A022900EB5EEF0A3EFF0900EECE4F0A3C3
:10874000747FF0FB7A00E4FDFCFFFE319DE4900EA7
:10875000B7F0A3F0E4900EB9F0A3F0900EB5F1B12C
:10876000900EB9E475F001121709C3900EBAE094A7
:1087700080900EB9E0940040E2900EB7E475F001ED
:10878000121709C3900EB8E09480900EB7E09400E1
:1087900040C222AB07AA068D828C83C006C007AEFA
:1087A00083AF82900EECEEF0A3EFF0D007D006215D
:1087B000B5E0FEA3E0FF900EE6EEF0A3123B409082
:1087C0000EE6E0FCA3E0FDECA3F0A3EDF07D04E4F5
:1087D000FF123B11900EE8E0FF123AE6900EE9E03E
:1087E000FF123AE67D08E4FF023B11900EB0EAF07A
:1087F000A3EBF0900EACEEF0A3EFF0A3ECF0A3ED42
:10880000F0C007A3E0FAA3E0FB900EAEE0FFA3E008
:10881000900ECCCFF0A3EFF074FFA3F0A3F0D0073D
:108820001284EA900EACE0FAA3E0FBFFAE02C007B0
:10883000A3E0FCA3E0FD900EB2E0FFA3E0900ECC1D
:10884000CFF0A3EFF074FFA3F0A3F0D0071284EAF7
:10885000900EADE02401FF900EACE03400FEC006A7
:10886000C007900EB3E024FFFD900EB2E034FFFC91
:10887000900EB0E0FAA3E0FBA3E0FEA3E024FFFF2C
:10888000EE34FF900ECCF0A3EFF0A37484F0A37449
:1088900010F0D007D0061284EA900EB2E0FCA3E0FC
:1088A000FD900EB0E0FAA3E0FBA3E0FFA3E0900E82
:1088B000CCCFF0A3EFF0A37442F0A37408F0900EB5
:1088C000ACE0FEA3E0FF1284EA900EB1E024FFFBCF
:1088D000900EB0E034FFFAAF03FEC007900EAFE099
:1088E0002401FD900EAEE03400FC900EB2E0FFA338
:1088F000E0900ECCCFF0A3EFF0A37484F0A374103B
:10890000F0D0071284EA900EB0E0FAA3E0FBFFAECD
:1089100002C007900EAEE0FCA3E0FD900EB2E0FFB7
:10892000A3E0900ECCCFF0A3EFF0A37442F0A374B9
:1089300008F0D0070284EA900EB7ECF0A3EDF0A3A4
:10894000EAF0A3EBF0900EB5EEF0A3EFF0900EC4BA
:10895000EEF0A3EFF0900EBD1218A51215F2700202
:1089600081B2C39480400241981215F2FF7E0090BC
:108970000EC2EEF0A3EFF0640D7014A3E0FFA3E0CD
:10898000900EB5CFF0A3EFF0A3E475F010418CD3B7
:10899000900EC3E09420900EC2E09400400A74FF51
:1089A00075F0E01217098007E4900EC2F0A3F0E41E
:1089B000900EC0F0E4900EC1F0900EC1E0FDC394A3
:1089C0000840024177900EC3E0C4F8540FC868FF16
:1089D000900EC2E0C454F048FE900EC0E0FC7A0055
:1089E0002FFFEA3EFE74002FF58274003EF583E00F
:1089F000FB74807E00A805088006CEA2E713CE1384
:108A0000D8F8FFEE5AFEEF5B4E6026900EC1E0FFF5
:108A1000900EB6E02FFF900EB5E03400FEECFD9016
:108A20000EB8E02DFD900EB7E03400FC900EB9803A
:108A30003B900EBBE0FEA3E0FF900EB9E06E70032A
:108A4000A3E06F602A900EC1E0FF900EB6E02FFF0A
:108A5000900EB5E03400FE900EC0E0FD900EB8E040
:108A60002DFD900EB7E03400FC900EBB12834E90AB
:108A70000EC1E004F021B9900EC0E004F0E0C39410
:108A800010500221B4900EB5E475F0081217099049
:108A90000EBEE475F00181ADE4900EC2F0A3F0903B
:108AA0000EC2E0FEA3E0FFC39432EE9400400281C8
:108AB0009C900EBD1218A51215F2FD9005F475F0EC
:108AC00003EF121899EE75F003A42583F583E06D8A
:108AD0006002819090000112160BFF900EC2E0FC24
:108AE000A3E09005F575F003121899EC75F003A456
:108AF0002583F583E06F60028190900EC0F0E490D2
:108B00000EC1F0900EC2A3E075F003A424F6F58226
:108B1000E43405F583C083C082900EC0E0FDD082AE
:108B2000D08375F002121899E0FB3395E0FA900EAD
:108B3000C1E0FC74807E00A804088006CEA2E71382
:108B4000CE13D8F8FFEE5AFEEF5B4E6021ECFF909B
:108B50000EB6E02FFF900EB5E03400FE900EB8E0A8
:108B60002DFD900EB7E03400FC900EB9803B900EC6
:108B7000BBE0FEA3E0FF900EB9E06E7003A3E06FD0
:108B8000602A900EC1E0FF900EB6E02FFF900EB568
:108B9000E03400FE900EC0E0FD900EB8E02DFD9098
:108BA0000EB7E03400FC900EBB12834E900EC1E075
:108BB00004F0E0C3940850026103E4900EC1F09009
:108BC0000EC2A3E075F003A424F7F582E43405F5A2
:108BD00083C083C082900EC0E0FDD082D08375F048
:108BE00002121899E0FB3395E0FA900EC1E0FC7494
:108BF000807E00A804088006CEA2E713CE13D8F822
:108C0000FFEE5AFEEF5B4E6027ECFF900EB6E02FB2
:108C1000FF900EB5E03400CF2408CF3400FE900E54
:108C2000B8E02DFD900EB7E03400FC900EB9804105
:108C3000900EBBE0FEA3E0FF900EB9E06E7003A3C0
:108C4000E06F6030900EC1E0FF900EB6E02FFF9015
:108C50000EB5E03400CF2408CF3400FE900EC0E003
:108C6000FD900EB8E02DFD900EB7E03400FC900EA4
:108C7000BB12834E900EC1E004F0E0C39408500292
:108C800061BF900EC0E004F0E0C39410500241FEBA
:108C9000900EC2E475F001121709419F900EBEE4D8
:108CA00075F002121709900EB5E475F0101217094D
:108CB000215522900EC3EEF0A3EFF0A3ECF0A3ED4C
:108CC000F0A3EAF0A3EBF0900ECB1218A51215F268
:108CD0007002A1EFC3948050EE1215F2FF7E009057
:108CE0000ED0EEF0A3EFF0D39420EE9400400D9060
:108CF0000ED074FF75F0E01217098007E4900ED0D3
:108D0000F0A3F0E4900ECEF0E4900ECFF0900ECFF2
:108D1000E0FDC394084002A1CB900ED1E0C4F8540A
:108D20000FC868FF900ED0E0C454F048FE900ECEFD
:108D3000E0FC7A002FFFEA3EFE74002FF5827400FB
:108D40003EF583E0FB74807E00A805088006CEA275
:108D5000E713CE13D8F8FFEE5AFEEF5B4E60269075
:108D60000ECFE0FF900EC4E02FFF900EC3E0340062
:108D7000FEECFD900EC6E02DFD900EC5E03400FC2B
:108D8000900EC7803B900EC9E0FEA3E0FF900EC797
:108D9000E06E7003A3E06F602A900ECFE0FF900EAC
:108DA000C4E02FFF900EC3E03400FE900ECEE0FD35
:108DB000900EC6E02DFD900EC5E03400FC900EC96B
:108DC00012834E900ECFE004F0A10D900ECEE00481
:108DD000F0E0C394105002A108900ECCE475F001AD
:108DE000121709900EC3E475F00812170981C72203
:108DF000900EC3EEF0A3EFF0A3ECF0A3EDF0A3EA26
:108E0000F0A3EBF0C007A3E0FFA3E0900EECCFF0DF
:108E1000A3EFF0D00712819DE4900ECDF0A3F09067
:108E20000EC3E0FEA3E0FFC3900EC8E09FFF900ECC
:108E3000C7E09EFEC3900ECEE09F900ECDE09E5008
:108E400047E4900ECFF0A3F0900EC5E0FEA3E0FF44
:108E5000C3900ECAE09FFF900EC9E09EFEC3900E25
:108E6000D0E09F900ECFE09E5012900ECB1287B1B3
:108E7000900ECFE475F00112170980CC900ECDE46E
:098E800075F00112170980972218
:020000040001F9
:100000008D828C8312160BFF3395E0FEE92DF9EA01
:100010003CFA90000112160BFD3395E0FC900EC2E5
:10002000EEF0A3EFF0A3ECF0A3EDF024FFFDEC3431
:10003000FFFC900F5CE0FAA3E0FB120167900EC397
:10004000E024FFFF900EC2E034FFFE900EC4E0FCFF
:10005000A3E0FD900F5CE0FAA3E0FB120167900EB5
:10006000C2E0FEA3E0FFA3E0FCA3E0FD900F5CE094
:10007000FAA3E0FB120167900EC3E02401FF900E8B
:10008000C2E03400FE900EC4E0FCA3E0FD900F5CE3
:10009000E0FAA3E0FB120167900EC3E024FFFF909B
:1000A0000EC2E034FFFE900EC5E02401FD900EC4A8
:1000B000E03400FC900F5CE0FAA3E0FB12016790D3
:1000C0000EC2E0FEA3E0FF900EC5E02401FD900EFD
:1000D000C4E03400FC900F5CE0FAA3E0FB1201677F
:1000E000900EC3E02401FF900EC2E03400FE900E9B
:1000F000C5E02401FD900EC4E03400FC900F5CE0EC
:10010000FAA3E0FB0201677F0A7E00020144122B82
:1001100093C007E4FF12ADAAAE07D007EEB5070102
:1001200022310780E9900EBD1218C5E4900EC0F090
:10013000A3F0900EC0F0A3F0900EC0E0FEA3E0FF8D
:10014000C39414EE648094805024EF25E0FDEE33D8
:10015000FC900EBD1218A58D828C8312160B6002C6
:100160001100900EC0E475F00112170980CA221226
:100170002117900F5EE0FFA3E0900EBBCFF0A3EF3E
:10018000F07BFF7A20793CA31218C57B7D7AEFE4DF
:10019000FDFCFFFE120158900F5EE0FFA3E0900E01
:1001A000BBCFF0A3EFF07BFF7A207942A31218C5F2
:1001B0007B7D7AEFE4FDFC7F5AFE020158900EBD74
:1001C000EEF0A3EFF0A3ECF0A3EDF0900EBDE0FC99
:1001D000A3E0FDEC1213647BCD7ACC798C78C0124D
:1001E00010C812139DC006C007900EBFE0FCA3E02C
:1001F000FDEC1213647BCD7ACC798C78C11210C8D7
:1002000012139DAD07AC06C004C005900EBDE0FC06
:10021000A3E0FDEC1213647BCD7ACC790C78C1128B
:1002200010C812139DAB07AA06900EC0E024EAFE88
:10023000900EBFE034FF900ECCF0A3CEF0900F5C98
:10024000E0FFA3E0900ECECFF0A3EFF0D005D004F6
:10025000D007D00612014E900EBDE0FCA3E0FDECED
:100260001213647BCD7ACC790C78C11210C81213AA
:100270009DC006C007900EC0E024EAFD900EBFE0CE
:1002800034FFFCC004C005900EBEE024EAFB900ED3
:10029000BDE034FFFAC002C003900EBFE0FCA3E053
:1002A000FDEC1213647BCD7ACC798C78411210C8A6
:1002B00012139D900ECCEEF0A3EFF0900F5CE0FFD8
:1002C000A3E0900ECECFF0A3EFF0D003D002D00584
:1002D000D004D007D00612014E900EBEE024EAFFF3
:1002E000900EBDE034FFFEC006C007900EBFE0FCDC
:1002F000A3E0FDEC1213647BCD7ACC798C784112AB
:1003000010C812139DAD07AC06C004C005900EBD09
:10031000E0FCA3E0FDEC1213647BCD7ACC798C7801
:10032000C11210C812139DAB07AA06900EC0E0249C
:1003300016FE900EBFE03400900ECCF0A3CEF090ED
:100340000F5CE0FFA3E0900ECECFF0A3EFF0D0055E
:10035000D004D007D00612014E900EBDE0FCA3E001
:10036000FDEC1213647BCD7ACC798C78C11210C865
:1003700012139DC006C007900EC0E02416FD900E1B
:10038000BFE03400FCC004C005900EBDE0FCA3E05B
:10039000FDEC1213647BCD7ACC792478C11210C89D
:1003A00012139DAB07AA06900EBFE0FFA3E0900ECC
:1003B000CCCFF0A3EFF0900F5CE0FFA3E0900ECE67
:1003C000CFF0A3EFF0D005D004D007D00612014E35
:1003D000900EBDE0FCA3E0FDEC1213647BCD7ACC63
:1003E000798C78C01210C812139DC006C007900EF9
:1003F000BFE0FCA3E0FDEC1213647B337A33795346
:1004000078411210C812139DAD07AC06C004C00598
:10041000900EBDE0FCA3E0FDEC1213647BCD7ACC22
:10042000792478C11210C812139DAB07AA06900E4A
:10043000BFE0FFA3E0900ECCCFF0A3EFF0900F5CF5
:10044000E0FFA3E0900ECECFF0A3EFF0D005D004F4
:10045000D007D00612014E900EBDE0FCA3E0FDECEB
:100460001213647BCD7ACC790C78C11210C81213A8
:100470009DC006C007900EBFE0FCA3E0FDEC121388
:10048000647BCD7ACC798C78401210C812139DAD64
:1004900007AC06C004C005900EBDE0FCA3E0FDEC77
:1004A0001213647BCD7ACC798C78C01210C81213E9
:1004B0009DAB07AA06C002C003900EBFE0FCA3E0FC
:1004C000FDEC1213647BCD7ACC790C78C11210C884
:1004D00012139D900ECCEEF0A3EFF0900F5CE0FFB6
:1004E000A3E0900ECECFF0A3EFF0D003D002D00562
:1004F000D004D007D00612014E900EBDE0FCA3E060
:10050000FDEC1213647BCD7ACC798C78C01210C8C4
:1005100012139DC006C007900EBFE0FCA3E0FDECE7
:100520001213647BCD7ACC790C78C11210C81213E7
:100530009DAD07AC06C004C005900EBDE0FCA3E075
:10054000FDEC1213647BCD7ACC790C78C11210C803
:1005500012139DAB07AA06C002C003900EBFE0FCB9
:10056000A3E0FDEC1213647BCD7ACC798C78C012B9
:1005700010C812139D900ECCEEF0A3EFF0900F5C1C
:10058000E0FFA3E0900ECECFF0A3EFF0D003D002B7
:10059000D005D004D007D00612014E900EBDE0FC6D
:1005A000A3E0FDEC1213647BCD7ACC790C78C112F8
:1005B00010C812139DC006C007900EBFE0FCA3E058
:1005C000FDEC1213647BCD7ACC798C78C01210C804
:1005D00012139DAD07AC06C004C005900EBDE0FC33
:1005E000A3E0FDEC1213647BCD7ACC798C78C01239
:1005F00010C812139DAB07AA06C002C003900EBF1D
:10060000E0FCA3E0FDEC1213647BCD7ACC798C780E
:10061000C11210C812139D900ECCEEF0A3EFF09013
:100620000F5CE0FFA3E0900ECECFF0A3EFF0D0037D
:10063000D002D005D004D007D00612014E900EBDD6
:10064000E0FCA3E0FDEC1213647BCD7ACC790C784E
:10065000C01210C812139DAB07AA06C006C007C07F
:1006600002C003900EBFE0FCA3E0FDEC1213647B1C
:10067000CD7ACC790C78411210C812139D900ECC13
:10068000EEF0A3EFF0900F5CE0FFA3E0900ECECF72
:10069000F0A3EFF0900EBFE0FCA3E0FDD003D0028A
:1006A000D007D00612014E900EBDE0FCA3E0FDEC99
:1006B0001213647BCD7ACC798C78401210C8121357
:1006C0009DC006C007900EBFE0FCA3E0FDEC121336
:1006D000647BCD7ACC798C78C11210C812139DAD91
:1006E00007AC06C004C005900EBDE0FCA3E0FDEC25
:1006F0001213647BCD7ACC790C78411210C8121396
:100700009DAB07AA06900EC0E024EAFE900EBFE063
:1007100034FF900ECCF0A3CEF0900F5CE0FFA3E08E
:10072000900ECECFF0A3EFF0D005D004D007D006C6
:1007300012014E900EBDE0FCA3E0FDEC1213647BB1
:10074000CD7ACC790C78411210C812139DC006C026
:1007500007900EC0E024EAFD900EBFE034FFFCC01D
:1007600004C005900EBEE02416FB900EBDE03400E0
:10077000FAC002C003900EBFE0FCA3E0FDEC121330
:10078000647BCD7ACC798C78411210C812139D907D
:100790000ECCEEF0A3EFF0900F5CE0FFA3E0900E24
:1007A000CECFF0A3EFF0D003D002D005D004D00715
:1007B000D00612014E900EBEE02416FF900EBDE052
:1007C0003400FEC006C007900EBFE0FCA3E0FDECC5
:1007D0001213647BCD7ACC798C78411210C8121335
:1007E0009DAD07AC06C004C005900EBDE0FCA3E0C3
:1007F000FDEC1213647BCD7ACC798C78411210C851
:1008000012139DAB07AA06900EC0E02416FE900EB0
:10081000BFE03400900ECCF0A3CEF0900F5CE0FF70
:10082000A3E0900ECECFF0A3EFF0D005D004D00718
:10083000D00612014E900EBDE0FCA3E0FDEC1213B9
:10084000647BCD7ACC798C78411210C812139DC08C
:1008500006C007900EC0E02416FD900EBFE03400E5
:10086000FCC004C005900EBDE0FCA3E0FDEC12133B
:10087000647BCD7ACC792478411210C812139DABD9
:1008800007AA06900EBFE0FFA3E0900ECCCFF0A326
:10089000EFF0900F5CE0FFA3E0900ECECFF0A3EF5F
:1008A000F0D005D004D007D00612014E900EBDE066
:1008B000FCA3E0FDEC1213647BCD7ACC798C7840FC
:1008C0001210C812139DC006C007900EBFE0FCA313
:1008D000E0FDEC1213647B337A33795378411210C4
:1008E000C812139DAD07AC06C004C005900EBDE054
:1008F000FCA3E0FDEC1213647BCD7ACC7924784123
:100900001210C812139DAB07AA06900EBFE0FFA3FA
:10091000E0900ECCCFF0A3EFF0900F5CE0FFA3E0EF
:10092000900ECECFF0A3EFF0D005D004D007D006C4
:1009300012014E900EBDE0FCA3E0FDEC1213647BAF
:10094000CD7ACC790C78411210C812139DC006C024
:1009500007900EBFE0FCA3E0FDEC1213647BCD7AA0
:10096000CC798C78401210C812139DAD07AC06C02C
:1009700004C005900EBDE0FCA3E0FDEC1213647B07
:10098000CD7ACC798C78401210C812139DAB07AA8F
:1009900006C002C003900EBFE0FCA3E0FDEC121302
:1009A000647BCD7ACC790C78C11210C812139D905B
:1009B0000ECCEEF0A3EFF0900F5CE0FFA3E0900E02
:1009C000CECFF0A3EFF0D003D002D005D004D007F3
:1009D000D00612014E900EBDE0FCA3E0FDEC121318
:1009E000647BCD7ACC798C78401210C812139DC0EC
:1009F00006C007900EBFE0FCA3E0FDEC1213647B81
:100A0000CD7ACC790C78C11210C812139DAD07AC09
:100A100006C004C005900EBDE0FCA3E0FDEC12137F
:100A2000647BCD7ACC790C78411210C812139DAB3F
:100A300007AA06C002C003900EBFE0FCA3E0FDECD5
:100A40001213647BCD7ACC798C78C01210C8121343
:100A50009D900ECCEEF0A3EFF0900F5CE0FFA3E0D2
:100A6000900ECECFF0A3EFF0D003D002D005D0048B
:100A7000D007D00612014E900EBDE0FCA3E0FDECC5
:100A80001213647BCD7ACC790C78411210C8121302
:100A90009DC006C007900EBFE0FCA3E0FDEC121362
:100AA000647BCD7ACC798C78C01210C812139DADBE
:100AB00007AC06C004C005900EBDE0FCA3E0FDEC51
:100AC0001213647BCD7ACC798C78401210C8121343
:100AD0009DAB07AA06C002C003900EBFE0FCA3E0D6
:100AE000FDEC1213647BCD7ACC798C78C11210C8DE
:100AF00012139D900ECCEEF0A3EFF0900F5CE0FF90
:100B0000A3E0900ECECFF0A3EFF0D003D002D0053B
:100B1000D004D007D00612014E900EBDE0FCA3E039
:100B2000FDEC1213647BCD7ACC790C78401210C89E
:100B300012139DAB07AA06C006C007C002C00390EF
:100B40000EBFE0FCA3E0FDEC1213647BCD7ACC7900
:100B50000C78411210C812139D900ECCEEF0A3EF4A
:100B6000F0900F5CE0FFA3E0900ECECFF0A3EFF08B
:100B7000900EBFE0FCA3E0FDD003D002D007D0066A
:100B800012014E900EBDE0FCA3E0FDEC1213647B5D
:100B9000CD7ACC798C78C01210C812139DC006C0D3
:100BA00007900EBFE0FCA3E0FDEC1213647BCD7A4E
:100BB000CC790C78C11210C812139DAD07AC06C0D9
:100BC00004C005900EBDE0FCA3E0FDEC1213647BB5
:100BD000CD7ACC798C78401210C812139DAB07AA3D
:100BE00006C002C003900EBFE0FCA3E0FDEC1213B0
:100BF000647BCD7ACC790C78C11210C812139D9009
:100C00000ECCEEF0A3EFF0900F5CE0FFA3E0900EAF
:100C1000CECFF0A3EFF0D003D002D005D004D007A0
:100C2000D00612014E900EBDE0FCA3E0FDEC1213C5
:100C3000647BCD7ACC790C78401210C812139DC019
:100C400006C007900EBDE0FCA3E0FDEC1213647B30
:100C5000CD7ACC790C78C01210C812139DAB07AABC
:100C600006900EBFE0FFA3E0900ECCCFF0A3EFF014
:100C7000900F5CE0FFA3E0900ECECFF0A3EFF090DA
:100C80000EBFE0FCA3E0FDD007D00612014E900E8F
:100C9000BDE0FCA3E0FDEC1213647BCD7ACC790CB3
:100CA00078C01210C812139DC006C007900EBFE096
:100CB000FCA3E0FDEC1213647BCD7ACC790C784177
:100CC0001210C812139DAD07AC06C004C005900EEB
:100CD000BDE0FCA3E0FDEC1213647BCD7ACC790C73
:100CE00078401210C812139DAB07AA06C002C003B9
:100CF000900EBFE0FCA3E0FDEC1213647BCD7ACC38
:100D0000790C78411210C812139D900ECCEEF0A30E
:100D1000EFF0900F5CE0FFA3E0900ECECFF0A3EFDA
:100D2000F0D003D002D005D004D007D00612014E77
:100D3000900EBDE0FCA3E0FDEC1213647BCD7ACCF9
:100D4000798C78C01210C812139DC006C007900E8F
:100D5000BFE0FCA3E0FDEC1213647B337A337953DC
:100D600078411210C812139DAD07AC06C004C0052F
:100D7000900EBDE0FCA3E0FDEC1213647BCD7ACCB9
:100D8000798C78401210C812139DAB07AA06C002D6
:100D9000C003900EBFE0FCA3E0FDEC1213647B33B4
:100DA0007A33795378411210C812139D900ECCEE0D
:100DB000F0A3EFF0900F5CE0FFA3E0900ECECFF039
:100DC000A3EFF0D003D002D005D004D007D00602A4
:100DD000014E900EAC1218C5122117900F5EE0FF65
:100DE000A3E0900EBBCFF0A3EFF07BFF7A20794712
:100DF000A31218C57B7D7AEF7D147C007F1E7E00D8
:100E0000120158900F5EE0FFA3E0900EBBCFF0A35D
:100E1000EFF07BFF7A207951F1077BFF7A20795B35
:100E2000900EC61218C5900EAC1218A51215F2FE3F
:100E30003395E0900EC9F0A3CEF07B017A0F796A6A
:100E40001219AE900F5EE0FFA3E0900EC9CFF0A3A1
:100E5000EFF07B017A0F796AA31218C5900F5CE05E
:100E6000FAA3E0FB7D287C007F5A7E0012015D9092
:100E70000EAF1218A51215F2FF7021900EB21218C3
:100E8000A51215F27016900EAC1218A51215F2FEEE
:100E9000900EAF1218A5EE12168D804DEF604A909D
:100EA0000EB21218A51215F2703F900EAF1218A5CF
:100EB0001215F2FF900EB21218A5EF12168D900EB9
:100EC000AC1218A51215F2FF900EAF1218A5EF1272
:100ED000168D900F5EE0FFA3E0900EBBCFF0A3EF66
:100EE000F07BFF7A20795EF107900EAC1218A5E432
:100EF00012168D7D71FC7F0EFE1295AA7D717C000D
:100F00007F727E000295B4A31218C57B7D7AEF7DB7
:100F1000287C007F0A7E00020158900EC2EEF0A3EA
:100F2000EFF0A3ECF0A3EDF0EF24FFFFEE34FFFEB3
:100F3000ED24FFFDEC34FFFC900F5CE0FAA3E0FB36
:100F4000120167900EC2E0FEA3E0FF900EC5E02400
:100F5000FFFD900EC4E034FFFC900F5CE0FAA3E0CC
:100F6000FB120167900EC3E02401FF900EC2E03433
:100F700000FE900EC5E024FFFD900EC4E034FFFC9F
:100F8000900F5CE0FAA3E0FB120167900EC3E0242F
:100F9000FFFF900EC2E034FFFE900EC4E0FCA3E021
:100FA000FD900F5CE0FAA3E0FB120167900EC2E037
:100FB000FEA3E0FFA3E0FCA3E0FD900F5CE0FAA33A
:100FC000E0FB120167900EC3E02401FF900EC2E027
:100FD0003400FE900EC4E0FCA3E0FD900F5CE0FA4C
:100FE000A3E0FB120167900EC2E0FEA3E0FF900EAB
:100FF000C5E02401FD900EC4E03400FC900F5CE0DD
:10100000FAA3E0FB0201677C00E4FFFE020171909D
:101010000EAC1218C5E4FDFCED25E0FFEC33FE90AC
:101020000EAF1218A58F828E83E412169FE92FF956
:10103000EA3EFA900001E412169F0DBD00010CED8E
:10104000640A4C70D3E4FCFDED25E0FFEC33FE9028
:101050000EB21218A58F828E8312160B601CED251E
:10106000E0FFEC33FE8F82F583E412169FE92FF93F
:10107000EA3EFA900001E412169F0DBD00010CED4E
:1010800064144C70C3E4FCFDED25E0FFEC33FE90EE
:101090000EB51218A58F828E8312160B601CED25DB
:1010A000E0FFEC33FE8F82F583E412169FE92FF9FF
:1010B000EA3EFA900001E412169F0DBD00010CED0E
